:020000040800F2
:1000000000500020410B0008E50A0008EB0A000838
:10001000F10A0008F70A0008FD0A000800000000C5
:10002000000000000000000000000000030B0008BA
:100030000F0B0008000000001B0B0008270B000836
:10004000890B0008890B0008890B0008890B000840
:10005000890B0008890B0008890B0008890B000830
:10006000890B0008890B0008890B0008890B000820
:10007000890B0008890B0008890B0008890B000810
:10008000890B0008890B0008890B0008890B000800
:10009000890B0008890B0008890B0008890B0008F0
:1000A000890B0008890B0008890B0008890B0008E0
:1000B000890B0008890B0008890B0008890B0008D0
:1000C000890B0008890B0008890B0008890B0008C0
:1000D000890B0008890B0008890B0008890B0008B0
:1000E000890B0008890B0008890B0008000000003C
:1000F0000000000000000000000000000000000000
:0C01000000000000000000005FF808F1A3
:10010C0010B5054C237833B9044B13B10448AFF345
:10011C0000800123237010BD0C00002000000000A3
:10012C00AC19000808B5034B1BB103490348AFF3E6
:10013C00008008BD0000000010000020AC19000871
:10014C0080B588B000AF07F1100300221A605A6026
:10015C009A60DA60234B9B69224A43F01003936147
:10016C00204B9B6903F01003FB60FB681D4B9B69E4
:10017C001C4A43F0200393611A4B9B6903F0200344
:10018C00BB60BB68174B9B69164A43F00403936131
:10019C00144B9B6903F004037B607B68114B9B69D8
:1001AC00104A43F0080393610E4B9B6903F008035C
:1001BC003B603B6800223F210B4800F0CFFF3F2300
:1001CC003B6101237B610023BB610223FB6107F1CF
:1001DC0010031946044800F03DFE00BF2037BD4611
:1001EC0080BD00BF001002400008014090B585B0F2
:1001FC0000AF0446084611461A462346FB800346C8
:10020C00BB800B467B8013463B807B88013B9AB2BC
:10021C003B88013B9BB2B988F88800F079FABB881F
:10022C00FB8110E0FB88BB8106E03B8C184600F09C
:10023C0040FABB890133BB81BA897B889A42F4D3DB
:10024C00FB890133FB81FA893B889A42EAD300BFD0
:10025C0000BF1437BD4690BD80B582B000AF0346D9
:10026C00FB800B46BB8013467B80BB88FA88B98821
:10027C00F88800F04DFA7B88184600F01AFA00BF97
:10028C000837BD4680BD000090B587B000AF04466E
:10029C00084611461A462346FB800346BB800B4694
:1002AC00FB7013463B8000237B75FB883B8297F8E1
:1002BC002C305B08FB73FB7BDB08DBB21A46FB7B49
:1002CC0003F00703DBB2002B14BF01230023DBB2C6
:1002DC0013449BB297F82C2092B202FB03F3BB8120
:1002EC00FB78203BFB70FB7B9AB2FB8813449BB2E0
:1002FC00013B9CB297F82C309AB2BB8813449BB24A
:10030C00013B9BB2B988F888224600F001FA002321
:10031C007B8286E097F82C300C2B0BD1FA78798AFB
:10032C00454813465B0013449B0003440B441B7865
:10033C00FB7528E097F82C30102B08D1FA787B8AC3
:10034C003E4912010A4413441B78FB751BE097F8D5
:10035C002C30182B0BD1FA78798A394813465B006C
:10036C0013441B0103440B441B78FB750BE097F8FB
:10037C002C30202B5BD1FA787B8A324992010A44CB
:10038C0013441B78FB750023BB7544E097F83030A1
:10039C00002B20D1FA7DBB7D42FA03F303F001035D
:1003AC00002B04D03B88184600F083F903E03B8D0A
:1003BC00184600F07EF97B7D01337B757B7DFA7BE3
:1003CC00B3FBF2F101FB02F29B1ADBB2002B1FD143
:1003DC0000237B7522E0FA7DBB7D42FA03F303F028
:1003EC000103002B05D03A88B988FB881846FFF723
:1003FC0033FFFB880133FB80FA883B8AD21AFB7BE4
:10040C009A4205D13B8AFB80BB880133BB8005E057
:10041C00BB7D0133BB75BB7D072BB7D97B8A013301
:10042C007B827A8ABB899A42FFF474AF00E000BFEA
:10043C001C37BD4690BD00BFD0190008441E0008F3
:10044C00342400080436000890B589B004AFBA60B3
:10045C001A460346FB810B46BB811346FB801AE010
:10046C00BB681A78FC88B989F88997F82830029308
:10047C0097F8243001933B8C00932346FFF704FF3D
:10048C0097F824305B08DBB29AB2FB891344FB81EA
:10049C00BB680133BB60BB681B78002BE0D100BF8D
:1004AC0000BF1437BD4690BD80B485B000AF034685
:1004BC000A46FB711346BB710123FB6004E0FA7919
:1004CC00FB6802FB03F3FB60BB795A1EBA71002B6D
:1004DC00F5D1FB6818461437BD4680BC7047000048
:1004EC0090B589B004AF0446084611461A46234617
:1004FC00FB800346BB800B467B8013467B7000233E
:10050C00BB7397F828305B087B730023FB7359E0AF
:10051C007C887A78FB7BD31ADBB2013BDBB21946C1
:10052C000A20FFF7C1FF0346B4FBF3F12A4BA3FBF0
:10053C000123DA0813469B0013445B00CA1A1346C6
:10054C003B73BB7B002B21D1FA7B7B78013B9A421E
:10055C001CDA3B7B002B17D1FB7B9BB27A7B92B2D4
:10056C0002FB03F39AB2FB88134498B23A8CB98815
:10057C000023029397F828300193BB8C0093134609
:10058C002022FFF781FE1AE00123BB73FB7B9BB299
:10059C007A7B92B202FB03F39AB2FB88134498B2B3
:1005AC003B7B3033DAB23C8CB9880023029397F84A
:1005BC0028300193BB8C00932346FFF765FEFB7B31
:1005CC000133FB73FA7B7B789A42A1D300BF00BF47
:1005DC001437BD4690BD00BFCDCCCCCC80B500AFA0
:1005EC00012201210E4800F0B9FD012202210C4824
:1005FC0000F0B4FD01220421094800F0AFFD0122F6
:10060C000821074800F0AAFD01221021044800F03F
:10061C00A5FD01222021024800F0A0FD00BF80BDF5
:10062C000008014080B584B000AF0346FB71002286
:10063C001021184800F092FD0023FB731EE00022ED
:10064C000121144800F08AFD97F90730002B05DAD8
:10065C00012202210F4800F081FD04E0002202215A
:10066C000C4800F07BFD012201210A4800F076FDC8
:10067C00FB795B00FB71FB7B0133FB73FB7B072B73
:10068C00DDD901221021034800F068FD00BF1037AE
:10069C00BD4680BD0008014080B582B000AF034666
:1006AC00FB71FB791846FFF7BDFF00BF0837BD464D
:1006BC0080BD80B582B000AF0346FB80FB881B0A6F
:1006CC009BB2DBB21846FFF7ADFFFB88DBB21846D6
:1006DC00FFF7A8FF00BF0837BD4680BD80B582B0CC
:1006EC0000AF0346FB7100220821084800F036FDDC
:1006FC00FB791846FFF796FF01220821034800F00A
:10070C002DFD00BF0837BD4680BD00BF000801406D
:10071C0090B583B000AF0446084611461A462346EE
:10072C00FB800346BB800B467B8013463B802A2014
:10073C00FFF7D4FFFB8802339BB21846FFF7B9FFD3
:10074C007B8802339BB21846FFF7B3FF2B20FFF7D1
:10075C00C5FFBB8801339BB21846FFF7AAFF3B8845
:10076C0001339BB21846FFF7A4FF2C20FFF7B6FF0E
:10077C0000BF0C37BD4690BD80B500AFFFF72EFF14
:10078C00002204217C4800F0E9FC642000F05AFAB5
:10079C0001220421784800F0E1FC642000F052FAB8
:1007AC0001222021744800F0D9FC642000F04AFAA0
:1007BC001120FFF793FF782000F044FAB120FFF7E7
:1007CC008DFF0520FFF768FF3C20FFF765FF3C20FD
:1007DC00FFF762FFB220FFF781FF0520FFF75CFFF8
:1007EC003C20FFF759FF3C20FFF756FFB320FFF7E3
:1007FC0075FF0520FFF750FF3C20FFF74DFF3C2015
:10080C00FFF74AFF0520FFF747FF3C20FFF744FFA7
:10081C003C20FFF741FFB420FFF760FF0320FFF7F8
:10082C003BFFC020FFF75AFF2820FFF735FF0820B9
:10083C00FFF732FF0420FFF72FFFC120FFF74EFF19
:10084C00C020FFF729FFC220FFF748FF0D20FFF75C
:10085C0023FF0020FFF720FFC320FFF73FFF8D2071
:10086C00FFF71AFF2A20FFF717FFC420FFF736FF08
:10087C008D20FFF711FFEE20FFF70EFFC520FFF7CD
:10088C002DFF1A20FFF708FF3620FFF727FFC020A7
:10089C00FFF702FFE020FFF721FF0420FFF7FCFE2B
:1008AC002220FFF7F9FE0720FFF7F6FE0A20FFF7DC
:1008BC00F3FE2E20FFF7F0FE3020FFF7EDFE252093
:1008CC00FFF7EAFE2A20FFF7E7FE2820FFF7E4FEF9
:1008DC002620FFF7E1FE2E20FFF7DEFE3A20FFF781
:1008EC00DBFE0020FFF7D8FE0120FFF7D5FE03202A
:1008FC00FFF7D2FE1320FFF7CFFEE120FFF7EEFE4D
:10090C000420FFF7C9FE1620FFF7C6FE0620FFF7EE
:10091C00C3FE0D20FFF7C0FE2D20FFF7BDFE2620E5
:10092C00FFF7BAFE2320FFF7B7FE2720FFF7B4FE30
:10093C002720FFF7B1FE2520FFF7AEFE2D20FFF795
:10094C00ABFE3B20FFF7A8FE0020FFF7A5FE012021
:10095C00FFF7A2FE0420FFF79FFE1320FFF79CFE7B
:10096C003A20FFF7BBFE0520FFF796FE2920FFF784
:10097C00B5FE00BF80BD00BF0008014080B586B049
:10098C0004AF00237B6000F0FBF8FFF7F5FE4FF699
:10099C00FF730093A023802200210020FFF726FC88
:1009AC0000F022F8FFF7CCFB7B6801337B6000235F
:1009BC00029305230193002300934FF47843094AD3
:1009CC0000210020FFF740FD7B689AB205230293BB
:1009DC00002301931F230093012300210020FFF724
:1009EC007FFDE1E7C419000880B590B000AF07F1B6
:1009FC00180328220021184600F0CAFF3B1D0022D4
:100A0C001A605A609A60DA601A610123BB614FF474
:100A1C008033FB6100233B620123BB6202237B63B7
:100A2C004FF48033BB634FF4E013FB6307F11803FF
:100A3C00184600F0ABFB0346002B01D000F019F870
:100A4C000F237B600223BB600023FB604FF48063A9
:100A5C003B6100237B613B1D0221184600F018FE10
:100A6C000346002B01D000F004F800BF4037BD4610
:100A7C0080BD80B400AF72B600BFFEE780B485B015
:100A8C0000AF134B9B69124A43F001039361104B67
:100A9C009B6903F00103BB60BB680D4BDB690C4A1F
:100AAC0043F08053D3610A4BDB6903F080537B60C6
:100ABC007B68084B5B68FB60FB6823F0E063FB60C2
:100ACC00044AFB68536000BF1437BD4680BC7047B6
:100ADC00001002400000014080B400AFFEE780B47B
:100AEC0000AFFEE780B400AFFEE780B400AFFEE7D6
:100AFC0080B400AFFEE780B400AF00BFBD4680BC41
:100B0C00704780B400AF00BFBD4680BC704780B456
:100B1C0000AF00BFBD4680BC704780B500AF00F091
:100B2C0075F800BF80BD80B400AF00BFBD4680BC6F
:100B3C0070470000FFF7F7FF0B480C490C4A0023E5
:100B4C0002E0D458C4500433C4188C42F9D3094A77
:100B5C00094C002301E013600432A242FBD300F0E5
:100B6C00F3FEFFF70BFF7047000000200C00002085
:100B7C00F04D00080C0000202C000020FEE70000C7
:100B8C0080B500AF084B1B68074A43F01003136095
:100B9C00032000F02BF90F2000F008F8FFF76EFF90
:100BAC000023184680BD00BF0020024080B582B0F3
:100BBC0000AF7860124B1A68124B1B7819464FF431
:100BCC007A73B3FBF1F3B2FBF3F3184600F035F98B
:100BDC000346002B01D001230EE07B680F2B0AD8B3
:100BEC00002279684FF0FF3000F00BF9064A7B6861
:100BFC001360002300E0012318460837BD4680BD72
:100C0C0000000020080000200400002080B400AF89
:100C1C00054B1B781A46054B1B681344034A13609B
:100C2C0000BFBD4680BC7047080000202800002093
:100C3C0080B400AF024B1B681846BD4680BC7047A1
:100C4C002800002080B584B000AF7860FFF7F0FF7B
:100C5C00B8607B68FB60FB68B3F1FF3F05D00A4BC3
:100C6C001B781A46FB681344FB6000BFFFF7E0FFDC
:100C7C000246BB68D31AFA689A42F7D800BF00BF85
:100C8C001037BD4680BD00BF0800002080B485B081
:100C9C0000AF78607B6803F00703FB600C4BDB68EC
:100CAC00BB60BA684FF6FF031340BB60FB681A02C7
:100CBC00BB68134343F0BF6343F40033BB60044A87
:100CCC00BB68D36000BF1437BD4680BC704700BF03
:100CDC0000ED00E080B400AF044BDB681B0A03F0AE
:100CEC0007031846BD4680BC704700BF00ED00E00E
:100CFC0080B483B000AF03463960FB7197F90730BD
:100D0C00002B0ADB3B68DAB20C4997F90730120169
:100D1C00D2B20B4483F800230AE03B68DAB20849EC
:100D2C00FB7903F00F03043B1201D2B20B441A7689
:100D3C0000BF0C37BD4680BC704700BF00E100E02F
:100D4C0000ED00E080B489B000AFF860B9607A6063
:100D5C00FB6803F00703FB61FB69C3F10703042B7A
:100D6C0028BF0423BB61FB690433062B02D9FB6942
:100D7C00033B00E000237B614FF0FF32BB6902FABA
:100D8C0003F3DA43BB681A407B699A404FF0FF319A
:100D9C007B6901FA03F3D9437B680B401343184674
:100DAC002437BD4680BC704780B582B000AF7860F8
:100DBC007B68013BB3F1807F01D301230FE00A4A2A
:100DCC007B68013B53600F214FF0FF30FFF790FF22
:100DDC00054B00229A60044B07221A600023184628
:100DEC000837BD4680BD00BF10E000E080B582B082
:100DFC0000AF78607868FFF749FF00BF0837BD4641
:100E0C0080BD80B586B000AF0346B9607A60FB73D5
:100E1C0000237B61FFF75EFF78617A68B9687869B7
:100E2C00FFF790FF024697F90F3011461846FFF76F
:100E3C005FFF00BF1837BD4680BD80B582B000AFE4
:100E4C0078607868FFF7B0FF034618460837BD4650
:100E5C0080BD000080B48BB000AF78603960002397
:100E6C007B6200233B6269E101227B6A02FA03F395
:100E7C00FB613B681B68FA691340BB61BA69FB698B
:100E8C009A4240F058813B685B689A4A93425ED024
:100E9C00984A934275D8984A934258D0964A9342AE
:100EAC006FD8964A934252D0944A934269D8944A46
:100EBC0093424CD0924A934263D8924A934246D082
:100ECC00904A93425DD8122B2AD8122B59D801A2E2
:100EDC0052F823F05B0F0008350F0008470F00088D
:100EEC00890F00088F0F00088F0F00088F0F000864
:100EFC008F0F00088F0F00088F0F00088F0F00084E
:100F0C008F0F00088F0F00088F0F00088F0F00083D
:100F1C008F0F00088F0F00083D0F0008510F0008BD
:100F2C00794A934213D02CE03B68DB683B6229E0A2
:100F3C003B68DB6804333B6224E03B68DB680833C6
:100F4C003B621FE03B68DB680C333B621AE03B689A
:100F5C009B68002B02D104233B6213E03B689B6827
:100F6C00012B05D108233B627B68FA691A6109E001
:100F7C0008233B627B68FA695A6103E000233B62F9
:100F8C0000E000BFBB69FF2B01D87B6801E07B68E8
:100F9C0004337B61BB69FF2B02D87B6A9B0002E0A8
:100FAC007B6A083B9B003B617B691A680F213B699C
:100FBC0001FA03F3DB431A40396A3B6901FA03F384
:100FCC001A437B691A603B685B6803F08053002B03
:100FDC0000F0B1804D4B9B694C4A43F00103936187
:100FEC004A4B9B6903F00103BB60BB68484A7B6AB0
:100FFC009B08023352F82330FB607B6A03F0030337
:10100C009B000F2202FA03F3DB43FA681340FB60E8
:10101C007B68404A934213D07B683F4A93420DD081
:10102C007B683E4A934207D07B683D4A934201D18C
:10103C00032306E0042304E0022302E0012300E082
:10104C0000237A6A02F0030292009340FA68134379
:10105C00FB602F497B6A9B080233FA6841F8232016
:10106C003B685B6803F48013002B06D02D4B9A6809
:10107C002C49BB6913438B6006E02A4B9A68BB6909
:10108C00DB43284913408B603B685B6803F4001317
:10109C00002B06D0234BDA682249BB691343CB6083
:1010AC0006E0204BDA68BB69DB431E491340CB607A
:1010BC003B685B6803F40033002B06D0194B5A686D
:1010CC001849BB6913434B6006E0164B5A68BB6961
:1010DC00DB43144913404B603B685B6803F480337B
:1010EC00002B21D00F4B1A680E49BB6913430B60C0
:1010FC0021E000BF0000321000003110000022106F
:10110C00000021100000121000001110001002400D
:10111C000000014000080140000C0140001001409B
:10112C0000140140000401400B4B1A68BB69DB43FF
:10113C00094913400B607B6A01337B623B681A6878
:10114C007B6A22FA03F3002B7FF48EAE00BF00BF44
:10115C002C37BD4680BC70470004014080B483B07E
:10116C0000AF78600B467B8013467B707B78002B3E
:10117C0003D07A887B681A6103E07B881A047B6849
:10118C001A6100BF0C37BD4680BC704780B586B075
:10119C0000AF78607B68002B01D1012372E27B6881
:1011AC001B6803F00103002B00F08780924B5B68F7
:1011BC0003F00C03042B0CD08F4B5B6803F00C0377
:1011CC00082B12D18C4B5B6803F48033B3F5803F52
:1011DC000BD1894B1B6803F40033002B6CD07B685C
:1011EC005B68002B68D101234CE27B685B68B3F52C
:1011FC00803F06D1804B1B687F4A43F480331360D9
:10120C002EE07B685B68002B0CD17B4B1B687A4A09
:10121C0023F480331360784B1B68774A23F48023C4
:10122C0013601DE07B685B68B3F5A02F0CD1724B8B
:10123C001B68714A43F4802313606F4B1B686E4A22
:10124C0043F4803313600BE06B4B1B686A4A23F446
:10125C0080331360684B1B68674A23F48023136048
:10126C007B685B68002B13D0FFF7E2FC386108E069
:10127C00FFF7DEFC02463B69D31A642B01D903232A
:10128C0000E25D4B1B6803F40033002BF0D014E03C
:10129C00FFF7CEFC386108E0FFF7CAFC02463B6959
:1012AC00D31A642B01D90323ECE1534B1B6803F4D1
:1012BC000033002BF0D100E000BF7B681B6803F00B
:1012CC000203002B63D04C4B5B6803F00C03002B28
:1012DC000BD0494B5B6803F00C03082B1CD1464B1D
:1012EC005B6803F48033002B16D1434B1B6803F06F
:1012FC000203002B05D07B681B69012B01D0012355
:10130C00C0E13D4B1B6823F0F8027B685B69DB0096
:10131C00394913430B603AE07B681B69002B20D0E2
:10132C00364B01221A60FFF783FC386108E0FFF7A7
:10133C007FFC02463B69D31A022B01D90323A1E19E
:10134C002D4B1B6803F00203002BF0D02A4B1B68BB
:10135C0023F0F8027B685B69DB00274913430B60C1
:10136C0015E0264B00221A60FFF762FC386108E09A
:10137C00FFF75EFC02463B69D31A022B01D903230B
:10138C0080E11D4B1B6803F00203002BF0D17B683E
:10139C001B6803F00803002B3AD07B689B69002B79
:1013AC0019D0174B01221A60FFF742FC386108E094
:1013BC00FFF73EFC02463B69D31A022B01D90323EB
:1013CC0060E10D4B5B6A03F00203002BF0D00120AF
:1013DC0000F09CFA1CE00A4B00221A60FFF728FC74
:1013EC0038610FE0FFF724FC02463B69D31A022B4D
:1013FC0008D9032346E100BF00100240000042421E
:10140C0080044242924B5B6A03F00203002BE9D149
:10141C007B681B6803F00403002B00F0A6800023FC
:10142C00FB758B4BDB6903F08053002B0DD1884B84
:10143C00DB69874A43F08053D361854BDB6903F04A
:10144C008053BB60BB680123FB75824B1B6803F4A4
:10145C008073002B18D17F4B1B687E4A43F480733A
:10146C001360FFF7E5FB386108E0FFF7E1FB02468C
:10147C003B69D31A642B01D9032303E1754B1B6819
:10148C0003F48073002BF0D07B68DB68012B06D152
:10149C006F4B1B6A6E4A43F0010313622DE07B68AD
:1014AC00DB68002B0CD16A4B1B6A694A23F00103E1
:1014BC001362674B1B6A664A23F0040313621CE039
:1014CC007B68DB68052B0CD1614B1B6A604A43F0CF
:1014DC00040313625E4B1B6A5D4A43F00103136203
:1014EC000BE05B4B1B6A5A4A23F001031362584B07
:1014FC001B6A574A23F0040313627B68DB68002BDA
:10150C0015D0FFF795FB38610AE0FFF791FB024617
:10151C003B69D31A41F28832934201D90323B1E0DB
:10152C004B4B1B6A03F00203002BEED014E0FFF7C9
:10153C007FFB38610AE0FFF77BFB02463B69D31A5D
:10154C0041F28832934201D903239BE0404B1B6A42
:10155C0003F00203002BEED1FB7D012B05D13C4B9C
:10156C00DB693B4A23F08053D3617B68DB69002B3A
:10157C0000F08780364B5B6803F00C03082B61D0BE
:10158C007B68DB69022B46D1334B00221A60FFF7D4
:10159C004FFB386108E0FFF74BFB02463B69D31A5F
:1015AC00022B01D903236DE0294B1B6803F0007358
:1015BC00002BF0D17B681B6AB3F5803F08D1244B1C
:1015CC005B6823F400327B689B68214913434B60B2
:1015DC001F4B5B6823F474127B68196A7B685B6A27
:1015EC000B431B4913434B601B4B01221A60FFF743
:1015FC001FFB386108E0FFF71BFB02463B69D31A5F
:10160C00022B01D903233DE0114B1B6803F000733F
:10161C00002BF0D035E0104B00221A60FFF708FBCE
:10162C00386108E0FFF704FB02463B69D31A022B32
:10163C0001D9032326E0064B1B6803F00073002B33
:10164C00F0D11EE07B68DB69012B07D1012319E087
:10165C000010024000700040600042420B4B5B687F
:10166C00FB60FB6803F480327B681B6A9A4206D1EC
:10167C00FB6803F470127B685B6A9A4201D0012309
:10168C0000E0002318461837BD4680BD001002400C
:10169C0080B584B000AF786039607B68002B01D1D5
:1016AC000123D0E06A4B1B6803F007033A689A42A7
:1016BC0010D9674B1B6823F0070265493B6813433D
:1016CC000B60634B1B6803F007033A689A4201D026
:1016DC000123B8E07B681B6803F00203002B20D0C9
:1016EC007B681B6803F00403002B05D0594B5B6827
:1016FC00584A43F4E06353607B681B6803F00803AB
:10170C00002B05D0534B5B68524A43F46053536033
:10171C00504B5B6823F0F0027B689B684D49134388
:10172C004B607B681B6803F00103002B40D07B6887
:10173C005B68012B07D1474B1B6803F40033002B6C
:10174C0015D101237FE07B685B68022B07D1414BED
:10175C001B6803F00073002B09D1012373E03D4B90
:10176C001B6803F00203002B01D101236BE0394B02
:10177C005B6823F003027B685B68364913434B605C
:10178C00FFF756FAF8600AE0FFF752FA0246FB68D8
:10179C00D31A41F28832934201D9032353E02D4BE3
:1017AC005B6803F00C027B685B689B009A42EBD190
:1017BC00274B1B6803F007033A689A4210D2244B5C
:1017CC001B6823F0070222493B6813430B60204B34
:1017DC001B6803F007033A689A4201D0012332E0F8
:1017EC007B681B6803F00403002B08D0194B5B6863
:1017FC0023F4E0627B68DB68164913434B607B681B
:10180C001B6803F00803002B09D0124B5B6823F410
:10181C0060527B681B69DB000E4913434B6000F080
:10182C0021F802460B4B5B681B0903F00F030A49B6
:10183C00CB5C22FA03F3094A1360094B1B68184668
:10184C00FFF7B4F9002318461037BD4680BD00BF22
:10185C000020024000100240C44D0008000000208F
:10186C000400002080B487B000AF0023FB6000238D
:10187C00BB6000237B6100237B6000233B611E4B1C
:10188C005B68FB60FB6803F00C03042B02D0082B95
:10189C0003D027E0194B3B6127E0FB689B0C03F05E
:1018AC000F03174AD35C7B60FB6803F48033002B77
:1018BC0010D0114B5B685B0C03F00103114AD35C35
:1018CC00BB607B680D4A03FB02F2BB68B2FBF3F30F
:1018DC007B6104E07B680C4A02FB03F37B617B6950
:1018EC003B6102E0054B3B6100BF3B6918461C376E
:1018FC00BD4680BC704700BF0010024000127A0049
:10190C00D44D0008E44D000800093D0080B485B0BA
:10191C0000AF78600A4B1B680A4AA2FB03235B0AE0
:10192C007A6802FB03F3FB6000BFFB685A1EFA6087
:10193C00002BF9D100BF00BF1437BD4680BC7047E7
:10194C0000000020D34D621070B500260C4D0D4CDC
:10195C00641BA410A64209D100F022F800260A4DFF
:10196C000A4C641BA410A64205D170BD55F8043B6B
:10197C0098470136EEE755F8043B98470136F2E7F5
:10198C00E84D0008E84D0008E84D0008EC4D000853
:10199C0003460244934200D1704703F8011BF9E758
:1019AC00F8B500BFF8BC08BC9E467047F8B500BF40
:0819BC00F8BC08BC9E46704710
:1019C4004C6F6164696E6720000000000000000035
:1019D40000000000000000000000040404040400EF
:1019E4000004000014140A000000000000000000BD
:1019F40000000A0A1F0A0A1F0A0A000000040E1542
:101A040005060C14150E0400000012150D152E2CDD
:101A14002A1200000000040A0A36151529160000CF
:101A24000202010000000000000000001008080489
:101A34000404040408081000020404080808080840
:101A44000404020000000004150E0E15040000003A
:101A540000000008083E0808000000000000000024
:101A6400000000000202010000000000003F00002E
:101A74000000000000000000000000000002000060
:101A840000201010080804040202010000000E11D6
:101A940011111111110E00000000040604040404C5
:101AA400040E000000000E1111080402011F0000C2
:101AB40000000E11100C1010110E00000000080C94
:101AC4000C0A091F081C000000001F01010F11105F
:101AD400110E000000000C12010D1311110E000074
:101AE40000001E10080804040404000000000E1185
:101AF400110E1111110E000000000E111119161013
:101B040009060000000000000400000000040000BA
:101B1400000000000004000000040400000010089D
:101B24000402020408100000000000003F003F000F
:101B34000000000000000204081010080402000065
:101B440000000E11110804040004000000001C220F
:101B5400292D2D1D221C0000000004040C0A0A1E5D
:101B64001233000000000F12120E1212120F0000A6
:101B740000001E1101010101110E000000000F12EE
:101B840012121212120F000000001F120A0E0A0293
:101B9400121F000000001F120A0E0A0202070000B2
:101BA40000001C1201013911120C00000000331254
:101BB400121E12121233000000001F040404040455
:101BC400041F000000003E08080808080808090768
:101BD400000037120A060A1212370000000007023A
:101BE40002020202223F000000003B1B1B1B1515D2
:101BF4001535000000003B1216161A1A12170000C1
:101C040000000E1111111111110E000000000F122D
:101C1400120E02020207000000000E11111111172A
:101C2400190E180000000F12120E0A1212370000CB
:101C340000001E1101060810110F000000001F15FE
:101C440004040404040E00000000331212121212E1
:101C5400120C000000003312120A0A0C04040000E3
:101C64000000151515150E0A0A0A000000001B0ACB
:101C74000A04040A0A1B000000001B0A0A0A0404DE
:101C8400040E000000001F0908040402121F0000D3
:101C94001C0404040404040404041C0000020204DC
:101CA40004040808081010000E08080808080808AA
:101CB40008080E00040A00000000000000000000F4
:101CC40000000000000000000000003F02040000CB
:101CD400000000000000000000000000000C121CC6
:101CE400123C000000030202020E1212120E000047
:101CF40000000000001C1202120C0000001810105A
:101D0400101C1212123C000000000000000C121EF5
:101D1400021C000000182404041E0404041E000015
:101D240000000000003C120C021C221C00030202F2
:101D3400020E12121237000000040400000604040C
:101D4400040E000000080800000C08080808080732
:101D540000030202021A0A060A1300000007040420
:101D640004040404041F000000000000000F151503
:101D74001515000000000000000F121212370000B9
:101D840000000000000C1212120C00000000000001
:101D9400000F1212120E020700000000001C1212A3
:101DA400121C103800000000001B0602020700008D
:101DB40000000000001E020C101E000000000004C1
:101DC400041E0404041C000000000000001B121286
:101DD400123C000000000000001B0A0A040400007A
:101DE400000000000015150E0A0A000000000000A3
:101DF400001B0A040A1B000000000000003312123A
:101E04000C08040300000000001E0804041E000067
:101E140018080808080C0808080818000808080822
:101E24000808080808080808060404040408040448
:101E34000404060016090000000000000000000071
:101E4400000000000000000000000000000000008E
:101E54000000000808080808080800001818000016
:101E640000486C2412000000000000000000000084
:101E74000000002424247F1212127F121212000088
:101E84000000081C2A2A0A0C1828282A2A1C0808D8
:101E940000000022251515152A5854545422000018
:101EA4000000000C1212120A76252911916E00000E
:101EB400000606040300000000000000000000000B
:101EC40000402010100808080808081010204000DE
:101ED4000002040808101010101010080804020072
:101EE4000000000008086B1C1C6B080800000000C0
:101EF40000000000080808087F080808080000001F
:101F040000000000000000000000000006060403BA
:101F14000000000000000000FE00000000000000BF
:101F240000000000000000000000000006060000A1
:101F34000000804040202010100808040402020021
:101F44000000001824424242424242422418000047
:101F5400000000080E08080808080808083E0000E9
:101F64000000003C4242422020100804427E00004F
:101F74000000003C4242201820404042221C000045
:101F8400000000203028242422227E202078000013
:101F94000000007E0202021A26404042221C000079
:101FA400000000382402021A26424242241800008B
:101FB4000000007E2222101008080808080800000B
:101FC4000000003C4242422418244242423C0000A9
:101FD400000000182442424264584040241C00007F
:101FE400000000000000181800000000181800008D
:101FF40000000000000000080000000000080804C1
:1020040000000040201008040204081020400000D2
:102014000000000000007F0000007F0000000000BE
:1020240000000002040810204020100804020000F0
:102034000000003C424246402010100018180000E6
:102044000000001C225A555555552D42221C0000F3
:102054000000000808181414243C224242E700003F
:102064000000001F2222221E22424242221F0000A0
:102074000000007C4242010101010142221C0000D7
:102084000000001F2242424242424242221F0000FC
:102094000000003F4212121E12120242423F000090
:1020A4000000003F4212121E121202020207000038
:1020B4000000003C2222010101712122221C0000A7
:1020C400000000E7424242427E42424242E70000B0
:1020D4000000003E0808080808080808083E000038
:1020E4000000007C10101010101010101010110FB0
:1020F4000000007722120A0E0A1212222277000030
:10210400000000070202020202020202427F0000F3
:1021140000000077363636362A2A2A2A2A6B00002F
:10212400000000E346464A4A5252526262470000A7
:102134000000001C2241414141414141221C000058
:102144000000003F424242423E02020202070000F7
:102154000000001C2241414141414D53321C6000AA
:102164000000003F4242423E1212222242C70000B7
:102174000000007C4242020418204042423E00001B
:102184000000007F4908080808080808081C000027
:10219400000000E74242424242424242423C0000C6
:1021A400000000E742422224241414180808000006
:1021B4000000006B49494949555536222222000046
:1021C400000000E7422424181818242442E70000E1
:1021D400000000772222141408080808081C0000D4
:1021E4000000007E2120101008040442423F000039
:1021F400007808080808080808080808080878008B
:1022040000000202040408080810102020204040A6
:10221400001E1010101010101010101010101E00BE
:10222400003844000000000000000000000000002E
:10223400000000000000000000000000000000FF9B
:10224400000608000000000000000000000000007C
:10225400000000000000003C4278444242FC0000C0
:10226400000000030202021A26424242261A00001B
:10227400000000000000003844020202443800005C
:1022840000000060404040784442424264D800006C
:10229400000000000000003C427E0202423C0000BC
:1022A400000000F08808087E08080808083E0000BE
:1022B400000000000000007C22221C023C42423C40
:1022C400000000030202023A4642424242E7000092
:1022D4000000000C0C00000E08080808083E00006E
:1022E4000000003030000038202020202020221E52
:1022F4000000000302020272120A16122277000082
:102304000000000E0808080808080808083E000035
:10231400000000000000007F9292929292B70000A9
:10232400000000000000003B4642424242E7000039
:10233400000000000000003C42424242423C0000D7
:10234400000000000000001B26424242221E020739
:10235400000000000000007844424242447840E01B
:1023640000000000000000774C040404041F000077
:10237400000000000000007C42023C40423E00009D
:10238400000000000008083E0808080808300000A3
:1023940000000000000000634242424262DC000090
:1023A40000000000000000E7422424140808000094
:1023B40000000000000000EB4949555522220000AE
:1023C400000000000000007624181818246E000095
:1023D40000000000000000E7422424141808080745
:1023E400000000000000007E22100808447E000067
:1023F40000C0202020202010202020202020C000E9
:1024040010101010101010101010101010101010C8
:102414000006080808080810080808080808060044
:102424000C32C200000000000000000000000000A8
:102434000000000000000000000000000000000098
:102444000000000000000000000000000000000088
:102454000000000000000000000000000000000078
:1024640000000000000000006000600060006000E8
:102474006000600060004000200020002000000098
:102484000000000060006000600000000000000028
:1024940000000000600660063003980188004400D4
:1024A4000000000000000000000000000000000028
:1024B4000000000000000000000000000000000018
:1024C40000000000000000001002100210021002C0
:1024D400FE07FE0708020801080108010801FE07BB
:1024E400FE070401040104010401000000000000CF
:1024F40000000000000040004000F00158034C03BD
:10250400CC034C0058007000E000C001C00140033F
:102514004C035C034C034801F00040004000000001
:1025240000000000000000000E010A01910091006B
:102534009100510051003A00AE03A002500450042F
:102544004804480448048402840300000000000096
:10255400000000000000000038006C006C006C00FB
:102564006C006C002C0098071C011A013301330124
:102574006301E300C308C6093C0700000000000033
:10258400000000000C001C001000100008000400F3
:102594000000000000000000000000000000000037
:1025A4000000000000000000000000000000000027
:1025B40000000000000400020001800080004000D0
:1025C40040002000200020002000200020002000E7
:1025D4004000400080008000000100020004000070
:1025E4000000000002000400080010001000200099
:1025F40020004000400040004000400040004000F7
:102604002000200010001000080004000200000058
:102614000000000000000000000000004000C000B6
:102624004000460C4E0FD001F0015E0F460C4000F6
:102634004000400000000000000000000000000016
:102644000000000000000000000000000000400046
:102654004000400040004000FE0F400040004000A9
:1026640040004000000000000000000000000000E6
:102674000000000000000000000000000000000056
:102684000000000000000000000000000000000046
:10269400000000000C001C001000100008000400E2
:1026A4000000000000000000000000000000000026
:1026B4000000000000000000FE0700000000000011
:1026C4000000000000000000000000000000000006
:1026D40000000000000000000000000000000000F6
:1026E40000000000000000000000000000000000E6
:1026F400000000001C001C001C0000000000000082
:1027040000000000000400060002000300010001B4
:102714008000800040004000600020002000100085
:102724001000080008000C0004000600020000006D
:1027340000000000000000000000F00098010C03FD
:102744000C03060606060606060606060606060622
:1027540006060C030C039801F000000000000000C2
:102764000000000000000000000040007C00600049
:102774006000600060006000600060006000600055
:102784006000600060006000FC03000000000000C6
:1027940000000000000000000000F80084010203B3
:1027A40006030603000300018001C000600020004E
:1027B4001000080204020602FE03000000000000EC
:1027C400000000000000000000007800C600860140
:1027D400860180018001C0007000800100010003B7
:1027E4000003060306038601F80000000000000051
:1027F4000000000000000000000080018001C00112
:10280400A001A00190018801880184018201FE0FCA
:102814008001800180018001E007000000000000C9
:1028240000000000000000000000FC03040004009D
:10283400040004000400F4008C01040300030003FA
:102844000603060382018401F80000000000000072
:1028540000000000000000000000E00118030C0369
:102864000C0004000600E60116030E060606060622
:10287400060604060C021803F00000000000000025
:1028840000000000000000000000F8070C0604022D
:10289400040100010001800080004000400040006D
:1028A4006000600060006000600000000000000044
:1028B40000000000000000000000F8010C03060600
:1028C400060606060C021C03F000C8010C030606EB
:1028D4000606060606060C03F001000000000000D0
:1028E40000000000000000000000F0000C010C03D8
:1028F400060206060606060606078C067806000685
:10290400000300030C018C017800000000000000AB
:1029140000000000000000000000000000000000B3
:1029240000000000E000E000E00000000000000003
:1029340000000000E000E000E000000000000000F3
:102944000000000000000000000000000000000083
:1029540000000000600060000000000000000000B3
:102964000000000000006000600040002000200023
:1029740000000000000000000004000200018000CC
:10298400400020001000080004000800100020008F
:10299400400080000001000200040000000000006C
:1029A4000000000000000000000000000000000023
:1029B40000000000FE07000000000000FE07000009
:1029C4000000000000000000000000000000000003
:1029D40000000000000000000400080010002000B7
:1029E4004000800000010002000400020001800099
:1029F4004000200010000800040000000000000057
:102A040000000000000000000000E0031806040CB1
:102A1400040C0C0C0C0C000780014000400040002A
:102A240000000000E000E000E00000000000000002
:102A34000000000000000000E00018030C02CC05B8
:102A440064056605A605B604B604B604B604B60263
:102A5400E4010C040C021803F00000000000000064
:102A64000000000000000000000060006000500052
:102A7400D00090009000880088010801F801040348
:102A840004030402020202060F0F0000000000000B
:102A940000000000000000000000FE008C030C0396
:102AA4000C030C030C038C01FC000C030C020C063D
:102AB4000C060C060C060C03FE01000000000000CE
:102AC40000000000000000000000E00318030C06F2
:102AD4000C040404060006000600060006000600B6
:102AE40006040C040C021803F000000000000000AF
:102AF400000000000000000000007F008C010C03B7
:102B04000C030C060C060C060C060C060C060C0634
:102B14000C060C030C038C017F0000000000000075
:102B240000000000000000000000FF03060306048C
:102B34000604060086008600FE00860086008600E5
:102B44000600060406040602FF030000000000005D
:102B540000000000000000000000FF03060306045C
:102B64000604060086008600FE00860086008600B5
:102B740006000600060006001F000000000000001A
:102B840000000000000000000000F00018010C022A
:102B94000C0204020600060006000600C60F060327
:102BA40006030C030C031803F000000000000000EF
:102BB400000000000000000000000F0F06060606DB
:102BC4000606060606060606FE07060606060606A8
:102BD40006060606060606060F0F000000000000A3
:102BE40000000000000000000000FC036000600022
:102BF40060006000600060006000600060006000D1
:102C04006000600060006000FC0300000000000041
:102C140000000000000000000000F807C000C00031
:102C2400C000C000C000C000C000C000C000C000A0
:102C3400C000C000C000C000C000C60066003C0068
:102C440000000000000000000000CF038601C60061
:102C540046002600160036002E006E004600C60010
:102C640086008601060106038F07000000000000AD
:102C7400000000000000000000001F000600060025
:102C84000600060006000600060006000600060010
:102C94000600060406040602FF030000000000000C
:102CA4000000000000000000000007078603860300
:102CB4008E038E034E034E034A035A035A033A0308
:102CC40032033203320312038707000000000000BE
:102CD400000000000000000000008E0F0C021C0227
:102CE4001C0234023402640264024402C4028402F8
:102CF40084038403040304031F0200000000000093
:102D040000000000000000000000F00098010C0327
:102D14000C0206060606060606060606060606064D
:102D240006060C020C039801F000000000000000ED
:102D340000000000000000000000FF00060306067B
:102D440006060606060606068603FE0006000600BC
:102D540006000600060006001F0000000000000038
:102D640000000000000000000000F00098010C03C7
:102D74000C020606060606060606060606060606ED
:102D840076064C02CC039801F00080070003000093
:102D940000000000000000000000FF01060306061A
:102DA4000606060606060603FE004600C600860062
:102DB40086010603060306060F0E0000000000004D
:102DC40000000000000000000000F8020C030602EE
:102DD400060206000E003C00F800E0038003000732
:102DE4000206020606060C03F001000000000000C3
:102DF40000000000000000000000FE0762046108FB
:102E040061086000600060006000600060006000B5
:102E14006000600060006000F80100000000000035
:102E2400000000000000000000001E070C020C025D
:102E34000C020C020C020C020C020C020C020C021E
:102E44000C020C020C021801F0000000000000004B
:102E5400000000000000000000000F07060204014B
:102E640004010C010C0188008800980098005000AF
:102E7400500070003000200020000000000000001E
:102E840000000000000000000000F70E620442048D
:102E94004604460464026402E402E4029C029C01C7
:102EA4009801980188018800880000000000000053
:102EB400000000000000000000009E070C01080153
:102EC40018019000B0006000200060006000D00095
:102ED40090008801080104038E0700000000000030
:102EE400000000000000000000000F0F06040402B0
:102EF4000C0208011801B800B00070006000600006
:102F04006000600060006000F80100000000000044
:102F140000000000000000000000FC070C02060393
:102F240002018001800040004000200020001000C9
:102F3400180008040C040402FE0300000000000052
:102F440000000000E00320002000200020002000FA
:102F5400200020002000200020002000200020006D
:102F6400200020002000200020002000E0030000BA
:102F74000000000000000000040004000800080035
:102F84001000100010002000200040004000C0008D
:102F94008000800000010001000200020002000421
:102FA400000000007C004000400040004000400061
:102FB400400040004000400040004000400040000D
:102FC4004000400040004000400040007C00000001
:102FD40000006000900008010000000000000000F4
:102FE40000000000000000000000000000000000DD
:102FF40000000000000000000000000000000000CD
:1030040000000000000000000000000000000000BC
:1030140000000000000000000000000000000000AC
:103024000000000000000000000000000000FF0F8E
:103034000000000018006000000000000000000014
:10304400000000000000000000000000000000007C
:10305400000000000000000000000000000000006C
:10306400000000000000000000000000000000005C
:1030740000000000F0010C030C030003E0031C0338
:103084000E03060306038E0B7C0E000000000000F6
:10309400000000000000000008000E000C000C00FE
:1030A4000C000C00CC013C031C060C060C060C06A0
:1030B4000C060C060C021C03E401000000000000D6
:1030C40000000000000000000000000000000000FC
:1030D40000000000F0008C018C018601060006004F
:1030E400060006020C020C01F000000000000000C3
:1030F40000000000000000000002C0030003000301
:103104000003000378038C030C0306030603060381
:103114000603060304038C07780100000000000086
:10312400000000000000000000000000000000009B
:1031340000000000E001180308020C060C06FC075E
:103144000C000C0018041802E0010000000000004C
:1031540000000000000000000000C003600630060C
:1031640030003000FE01300030003000300030000C
:103174003000300030003000FC010000000000008E
:10318400000000000000000000000000000000003B
:1031940000000000F007D8068C018C018C01980116
:1031A400F8000C00FC00CC03060306038E03F800B1
:1031B400000000000000000008000E000C000C00DD
:1031C4000C000C00EC011C030C030C030C030C039B
:1031D4000C030C030C030C039E070000000000000A
:1031E400000000000000000000006000600000001B
:1031F400000040007C00600060006000600060002F
:103204006000600060006000FC030000000000003B
:1032140000000000000000000000C001C001000028
:1032240000000001F0018001800180018001800123
:10323400800180018001800180018001CC007C003C
:10324400000000000000000008000E000C000C004C
:103254000C000C008C038C008C004C006C005C0097
:103264008C008C010C010C039E0700000000000080
:10327400000000000000000040007C0060006000CE
:10328400600060006000600060006000600060003A
:103294006000600060006000FC03000000000000AB
:1032A400000000000000000000000000000000001A
:1032B400000000003707EE06660666066606660628
:1032C4006606660666066606FF0F0000000000003C
:1032D40000000000000000000000000000000000EA
:1032E40000000000EE011C030C030C030C030C0390
:1032F4000C030C030C030C039E07000000000000E9
:1033040000000000000000000000000000000000B9
:1033140000000000F00098010C03060606060606ED
:10332400060606060C030C03F00000000000000073
:103334000000000000000000000000000000000089
:1033440000000000EE011C030C060C060C060C0623
:103354000C060C060C031C03EC010C000C003E00D4
:103364000000000000000000000000000000000059
:103374000000000078028C030C0306030603060316
:103384000603060304038C03780300030003C00749
:103394000000000000000000000000000000000029
:1033A400000000009F035806380618001800180093
:1033B4001800180018001800FF00000000000000AA
:1033C40000000000000000000000000000000000F9
:1033D40000000000F0031C030C020C023800F00093
:1033E400C003040304038C03FC010000000000007C
:1033F4000000000000000000000000002000200089
:1034040030003000FE013000300030003000300069
:103414003000300030023002E00100000000000003
:103424000000000000000000000000000000000098
:10343400000008028E030C030C030C030C030C03A2
:103444000C030C030C039C0778010000000000002F
:103454000000000000000000000000000000000068
:10346400000000001E070C0208010801180190006A
:10347400B000B00060006000200000000000000008
:103484000000000000000000000000000000000038
:1034940000000000F70E6204460464026402EC02B9
:1034A4009C019801980198010800000000000000A8
:1034B4000000000000000000000000000000000008
:1034C40000000000BC0718011001B000600060009B
:1034D400E0009000080108039E07000000000000BF
:1034E40000000000000000000000000000000000D8
:1034F400000000009E0708010801080190009000E8
:10350400B0006000600060002000200024001C0067
:1035140000000000000000000000000000000000A7
:1035240000000000FC018401C4004400600020008D
:103534003000180208020C03FC0100000000000027
:1035440000000000000380008000800080008000F4
:103554008000800080004000200040008000800047
:103564008000800080008000800080000003000054
:103574004000400040004000400040004000400047
:103584004000400040004000400040004000400037
:103594004000400040004000400040004000400027
:1035A400000000000C0010001000100010001000BB
:1035B4001000100010002000400020001000100037
:1035C4001000100010001000100010000C0000008B
:1035D40000001C002204C20480030000000000005C
:1035E40000000000000000000000000000000000D7
:1035F40000000000000000000000000000000000C7
:1036040000000000000000000000000000000000B6
:1036140000000000000000000000000000000000A6
:103624000000000000000000000000000000000096
:103634000000000000000000000000000000000086
:1036440000000000000000000000C001C001C00133
:10365400C001C001C001C001800080008000800062
:103664008000800080000000000000000000800155
:10367400C003C0038001000000000000000000003F
:10368400000000000000E01CE01CF01E700E380773
:10369400180308018400000000000000000000007E
:1036A4000000000000000000000000000000000016
:1036B4000000000000000000000000000000000006
:1036C4000000000000000000000000002010201096
:1036D400201020102010FE7FFE7F10081008100814
:1036E4001008100810081008FE7FFE7F0804080464
:1036F40008040804080400000000000000000000A2
:10370400000000000000000000010001C007601973
:10371400103118311839183938017001E001C0032B
:103724008007000F001D003900311C311C310C31A1
:103734000C11180DE0070001000100010000000059
:103744000000000000000000000000001C103618FB
:103754006308630C63046304630263026301361D3C
:103764009C3780228063406340632063206330631E
:1037740010221836081C00000000000000000000A1
:10378400000000000000000000000000F0009801AC
:103794008C018C018C018C018C00CC007800183ECB
:1037A4001C083608320863046304C304C303834358
:1037B40006438E26781C0000000000000000000074
:1037C4000000000000001C003C003C003000300001
:1037D40010000C00060000000000000000000000C3
:1037E40000000000000000000000000000000000D5
:1037F40000000000000000000000000000000000C5
:103804000000000000000040002000100008000C30
:10381400000400060003000300038001800180010E
:103824008001800180018001800100030003000306
:1038340000060006000C00080010002000400000F4
:103844000000000000000200040008001000300026
:1038540020006000C000C000C00080018001800121
:1038640080018001800180018001C000C000C0008F
:103874006000600030001000080004000200000036
:103884000000000000000000000000000000000034
:1038940000018003800300011C713C79783DC0075E
:1038A4000001C007783D3C791C710001800380034E
:1038B4008001000000000000000000000000000083
:1038C40000000000000000000000000000000000F4
:1038D40000000001000100010001000100010001DD
:1038E400FC7F000100010001000100010001000152
:1038F40000000000000000000000000000000000C4
:1039040000000000000000000000000000000000B3
:1039140000000000000000000000000000000000A3
:103924000000000000000000000000000000000093
:103934001C003C003C003000300010000C0006006D
:103944000000000000000000000000000000000073
:103954000000000000000000000000000000000063
:10396400FE7F0000000000000000000000000000D6
:103974000000000000000000000000000000000043
:103984000000000000000000000000000000000033
:103994000000000000000000000000000000000023
:1039A40000000000000000000000000000001800FB
:1039B4003C003C0018000000000000000000000073
:1039C40000000000000000400060002000300010F3
:1039D40000180008000C00040006000200030001A7
:1039E40080018000C0004000600020003000100012
:1039F400180008000C00040006000200000000008B
:103A0400000000000000000000000000C007600C7F
:103A140030181830183018200C600C600C600C60E2
:103A24000C600C600C600C600C60182018301830AE
:103A34003018600CC0070000000000000000000007
:103A440000000000000000000000000000018001F0
:103A5400F8018001800180018001800180018001E2
:103A6400800180018001800180018001800180014A
:103A74008001C003F81F00000000000000000000E7
:103A8400000000000000000000000000E007101C1F
:103A94000818043004300C300C30003000180008D2
:103AA40000040002000180004000202010200820B3
:103AB4000430FC1FFC1F0000000000000000000098
:103AC400000000000000000000000000E003180EE9
:103AD4000C0C0C180C180C180018000C0006C00371
:103AE400000E00180010003000300C300C300C10A8
:103AF4000C18180CE0030000000000000000000097
:103B0400000000000000000000000000000C000E97
:103B1400000E000F800E800E400E600E200E100E60
:103B2400100E080E040E040EFE7F000E000E000E92
:103B3400000E000E000EC07F000000000000000018
:103B4400000000000000000000000000F03FF03F13
:103B540010001000100008000800C807280C1818EE
:103B6400081000300030003000300C300C300418E5
:103B74000418080CF003000000000000000000001E
:103B8400000000000000000000000000800FC010D2
:103B9400203010301800180008000C008C0F6C182E
:103BA4003C301C600C600C600C600C6018601820C9
:103BB40030306018C0070000000000000000000062
:103BC400000000000000000000000000F83FF83F83
:103BD4001C100C0804080404000400020002000184
:103BE40000010001800080008000C000C000C0000F
:103BF400C000C000C0000000000000000000000081
:103C0400000000000000000000000000E007300C8D
:103C140018180C300C300C301C3038187008E007C1
:103C2400B007180E0C1C0638063006300630063075
:103C34000C18180CE0030000000000000000000055
:103C4400000000000000000000000000E003180471
:103C54000C080C18061006300630063006300638FC
:103C64000C3C1836F03100300018001800180C0C09
:103C74000C060C03F001000000000000000000002E
:103C84000000000000000000000000000000000030
:103C9400000000000000000000008001C003C00319
:103CA400800100000000000000000000000080010E
:103CB400C003C003800100000000000000000000F9
:103CC40000000000000000000000000000000000F0
:103CD40000000000000000000000C000C000000060
:103CE40000000000000000000000000000000000D0
:103CF4000000C000C00080008000400040000000C0
:103D04000000000000000000000000200010000877
:103D14000004000600038001C000600030001800A9
:103D24000C00180030006000C00080010003000691
:103D34000004000800100020000000000000000043
:103D4400000000000000000000000000000000006F
:103D540000000000000000000000FE7F00000000E2
:103D6400000000000000FE7F0000000000000000D2
:103D7400000000000000000000000000000000003F
:103D84000000000000000000000004000800100013
:103D940020006000C000800100030006000C001831
:103DA40000300018000C000600038001C000600011
:103DB40020001000080004000000000000000000C3
:103DC40000000000000000000000C00730180830A8
:103DD40008600C601C601C601C600030001C000645
:103DE400000180008000800080000000000080014D
:103DF400C003C003800100000000000000000000B8
:103E0400000000000000000000000000C00760186F
:103E1400103018200C2F8C4D864CC64CC64C664C6A
:103E240066446644662666266615CC1C0C4008204B
:103E340018303018C0070000000000000000000027
:103E4400000000000000000000000001C001C001EB
:103E5400C001400160032003200320033006100644
:103E640010061006F80F080C080C080C0C0C0418AB
:103E7400041806181F7C0000000000000000000069
:103E8400000000000000000000000000FE07181CF5
:103E9400183818301830183018301818180CF8075B
:103EA4001818183018201860186018601860186006
:103EB40018301818FE0F0000000000000000000079
:103EC400000000000000000000000000C02760386F
:103ED400103018200C400C400400060006000600B8
:103EE400060006000600060006000C400C400C20EC
:103EF40018303018C0070000000000000000000067
:103F0400000000000000000000000000FE03180E86
:103F140018181830183018301860186018601860B5
:103F2400186018601860186018601830183018107D
:103F34001818180EFE030000000000000000000026
:103F4400000000000000000000000000FE3F1830E8
:103F5400182018601840180018081808180CF80FD2
:103F6400180C1808180818001800180018401840F1
:103F740018201830FE3F0000000000000000000080
:103F8400000000000000000000000000FE7F187028
:103F9400184018C018801800181018101818F81FA6
:103FA4001818181018101800180018001800180015
:103FB400180018007E00000000000000000000004F
:103FC400000000000000000000000000C013701C8E
:103FD400101018100C200C20040006000600060027
:103FE4000600060006FC063006300C300C30183093
:103FF40018303008C0070000000000000000000076
:104004000000000000000000000000003F7E0C18CB
:104014000C180C180C180C180C180C180C180C187C
:10402400FC1F0C180C180C180C180C180C180C1875
:104034000C180C183F7E0000000000000000000077
:10404400000000000000000000000000F81F8001D4
:104054008001800180018001800180018001800154
:104064008001800180018001800180018001800144
:1040740080018001F81F0000000000000000000023
:10408400000000000000000000000000E07F0006C7
:1040940000060006000600060006000600060006EC
:1040A40000060006000600060006000600060006DC
:1040B40000060006000600060E060E038E01FC0034
:1040C4000000000000000000000000007E7C1818C2
:1040D4001808180418061802180198019801D80144
:1040E400B803380318071806180E180C181C1818EB
:1040F400183018307EFC00000000000000000000B2
:104104000000000000000000000000007E00180015
:1041140018001800180018001800180018001800DB
:10412400180018001800180018001800184018404B
:1041340018201830FE3F00000000000000000000BE
:104144000000000000000000000000001FF81C3800
:104154001C381C381C3C3434343434343436743213
:104164006432643264326431C431C431C431C43021
:10417400C43084309FFC00000000000000000000F8
:104184000000000000000000000000001F7C1C1064
:104194003C103410341074106410E410C410C411B2
:1041A40084118413041304170416041E041C041C31
:1041B400041C04181F180000000000000000000088
:1041C400000000000000000000000000C003300CEC
:1041D400181808100C300C30066006600660066083
:1041E400066006600660066006600C200C3008104D
:1041F4001818300CC003000000000000000000008C
:10420400000000000000000000000000FE0F18186D
:104214001830186018601860186018601830181882
:10422400F80F1800180018001800180018001800DB
:10423400180018007E0000000000000000000000CC
:10424400000000000000000000000000C003300C6B
:1042540018180C100C300C2006600660066006600E
:1042640006600660066006600660E4612C331C325A
:104274001816300EC007004C007C00380000000007
:10428400000000000000000000000000FE07181CF1
:10429400183818301830183018301818180CF80757
:1042A40098031803180718061806180E180C180C8B
:1042B400181C18187E7800000000000000000000A0
:1042C400000000000000000000000000E02730387B
:1042D40018300C200C200C000C0018007800E003AF
:1042E400800F001E003800700060046004600860E5
:1042F40018303818C80F000000000000000000004B
:10430400000000000000000000000000FC3F8C21C1
:1043140084618241824180018001800180018001A9
:104324008001800180018001800180018001800181
:1043340080018001E0070000000000000000000090
:104344000000000000000000000000003F7C0C1092
:104354000C100C100C100C100C100C100C100C1079
:104364000C100C100C100C100C100C100C100C1069
:1043740008083804E003000000000000000000000A
:104384000000000000000000000000003EF81820BB
:1043940018201820301030103010301060086008D9
:1043A4006008E00CC004C004C004800380038003E0
:1043B4008003000100010000000000000000000074
:1043C400000000000000000000000000DFF3866130
:1043D400862186218C210C218C238C138C138C1325
:1043E4004C1358125816580E380E380E380E300C1E
:1043F400100410041004000000000000000000007D
:104404000000000000000000000000007E3E1808CC
:1044140038083004300470026002E001C001C001B9
:10442400800180034003400720062006100C100C76
:10443400081808183E7C000000000000000000007E
:104444000000000000000000000000007E7C1C1042
:10445400181018083008300C700460046002C002A0
:10446400C002C001800180018001800180018001BF
:1044740080018001E007000000000000000000004F
:10448400000000000000000000000000F83F1818C1
:104494000818040C040E00060007000380038001C2
:1044A400C001C000E0006000700030003820182017
:1044B4001C100C18FE1F000000000000000000008B
:1044C400000000000000C03F4000400040004000E9
:1044D40040004000400040004000400040004000D8
:1044E40040004000400040004000400040004000C8
:1044F40040004000400040004000C03F0000000079
:10450400000000000000000000000800180018006F
:10451400100030002000600060004000C0008000F7
:10452400800180010001000300020006000600046F
:10453400000C0008001800180010003000200000D3
:10454400000000000000FC03000200020002000260
:104554000002000200020002000200020002000247
:104564000002000200020002000200020002000237
:1045740000020002000200020002FC03000000002E
:104584000000000000008007C00620081010000092
:104594000000000000000000000000000000000017
:1045A4000000000000000000000000000000000007
:1045B40000000000000000000000000000000000F7
:1045C40000000000000000000000000000000000E7
:1045D40000000000000000000000000000000000D7
:1045E40000000000000000000000000000000000C7
:1045F4000000000000000000000000000000FFFFB9
:104604000000000000007800C0000001000000006D
:104614000000000000000000000000000000000096
:104624000000000000000000000000000000000086
:104634000000000000000000000000000000000076
:104644000000000000000000000000000000000066
:1046540000000000000000000000F00318060C0C2D
:104664000C0C000C800F700C1C0C0C0C060C060CB3
:10467400064C0C4FF8380000000000000000000059
:104684000000000000000000000010001E001800E0
:1046940018001800180018001800180FD81838301F
:1046A4003860186018601860186018601860182066
:1046B40038307818C807000000000000000000002F
:1046C40000000000000000000000000000000000E6
:1046D40000000000000000000000C007700C181863
:1046E40018180C180C000C000C000C000C201820DE
:1046F40018103008C007000000000000000000008F
:10470400000000000000000000000010001E00185F
:1047140000180018001800180018E01B301C1818A6
:1047240018180C180C180C180C180C180C1808185D
:10473400181C307AE00900000000000000000000AE
:104744000000000000000000000000000000000065
:1047540000000000000000000000C007300C181822
:1047640008100C300C30FC3F0C000C000C0018201E
:1047740018107018C00700000000000000000000BE
:10478400000000000000000000000000003E80C3A4
:1047940080C0C0C0C000C000C000FC1FC000C0007A
:1047A400C000C000C000C000C000C000C000C00005
:1047B400C000C000F80F000000000000000000006E
:1047C40000000000000000000000000000000000E5
:1047D40000000000000000000000C077306C1018DA
:1047E4001818181818181018300CF00718001800AA
:1047F400F00FF03F08700C600C600C603838E00F6C
:104804000000000000000000000010001E0018005E
:1048140018001800180018001800980FD81838301D
:104824001830183018301830183018301830183044
:10483400183018307EFC000000000000000000006A
:10484400000000000000000000000000800380035E
:1048540080030000000000000001F80180018001D5
:10486400800180018001800180018001800180013C
:1048740080018001F81F000000000000000000001B
:1048840000000000000000000000000000380038B4
:1048940000380000000000000010801F00180018FD
:1048A4000018001800180018001800180018001844
:1048B40000180018001800180018180C1806F00347
:1048C4000000000000000000000010001E0018009E
:1048D40018001800180018001800183E180C1806C4
:1048E400180318019801D801380318071806180C82
:1048F400181C18187E7C0000000000000000000056
:10490400000000000000000000000001F801800128
:10491400800180018001800180018001800180018B
:10492400800180018001800180018001800180017B
:1049340080018001F81F000000000000000000005A
:104944000000000000000000000000000000000063
:1049540000000000000000000800EE1C9C338C31B5
:104964008C318C318C318C318C318C318C318C315B
:104974008C318C31DE7B0000000000000000000060
:104984000000000000000000000000000000000023
:10499400000000000000000010001E0FD81838307E
:1049A40018301830183018301830183018301830C3
:1049B400183018307EFC00000000000000000000E9
:1049C40000000000000000000000000000000000E3
:1049D40000000000000000000000C007701C103040
:1049E40018300C600C600C600C600C600C601830AB
:1049F40018303018C007000000000000000000005C
:104A040000000000000000000000000000000000A2
:104A1400000000000000000010009E0F58183830FD
:104A24001820186018601860186018601860183032
:104A340038307818980718001800180018007E00FD
:104A44000000000000000000000000000000000062
:104A540000000000000000000000C023303C1838B3
:104A640018300C300C300C300C300C300C3008305A
:104A74001838303CE033003000300030003000FCA7
:104A84000000000000000000000000000000000022
:104A9400000000000000000060007E3C6066606171
:104AA400E000E00060006000600060006000600002
:104AB40060006000FE07000000000000000000002D
:104AC40000000000000000000000000000000000E2
:104AD40000000000000000000000E027303818301B
:104AE400182018007000E003800F001C043004300C
:104AF4000C301C18EC0F0000000000000000000047
:104B040000000000000000000000000000000000A1
:104B1400800080008000C000E000FC1FC000C000D6
:104B2400C000C000C000C000C000C000C000C02061
:104B3400C0208011000F00000000000000000000F1
:104B44000000000000000000000000000000000061
:104B5400000000000000000010201E3C1830183037
:104B64001830183018301830183018301830183001
:104B7400183830F4E01300000000000000000000CA
:104B84000000000000000000000000000000000021
:104B9400000000000000000000007E3C1818180807
:104BA400380830043004700260026002E001C00181
:104BB400C001C000800000000000000000000000F0
:104BC40000000000000000000000000000000000E1
:104BD40000000000000000000000DFF78E630C23DB
:104BE4008C238C239813981358165816700E700E35
:104BF400700E2004200400000000000000000000EB
:104C040000000000000000000000000000000000A0
:104C140000000000000000000000FC3E700870046A
:104C2400E004C002C0018003800340076006200C3A
:104C3400100C18183E7E0000000000000000000068
:104C44000000000000000000000000000000000060
:104C5400000000000000000000007E7C1818180806
:104C640030083008300460046004C002C002C0028E
:104C74008001800180018000800080004C003C00A5
:104C84000000000000000000000000000000000020
:104C940000000000000000000000FC1F0C0C040ECB
:104CA4000406000380038001C000E000702030206F
:104CB40038301C18FC1F0000000000000000000039
:104CC400000000000000003000080004000400049C
:104CD40000040004000400040004000400040002B2
:104CE4008001000200040004000400040004000425
:104CF4000004000400040004000400080030000064
:104D04000001000100010001000100010001000197
:104D14000001000100010001000100010001000187
:104D24000001000100010001000100010001000177
:104D34000001000100010001000100010001000167
:104D44000000000000000C001000200020002000E3
:104D5400200020002000200020002000200040002F
:104D640080014000200020002000200020002000BE
:104D74002000200020002000200010000C00000073
:104D840000003800C400864002610022001C0000BC
:104D9400000000000000000000000000000000000F
:104DA40000000000000000000000000000000000FF
:104DB40000000000000000000000000000000000EF
:104DC40000000000000000000102030406070809B7
:104DD40002030405060708090A0B0C0D0E0F101038
:044DE40001020000C8
:044DE800310100088D
:044DEC000D010008AD
:0C4DF00000127A0010000000010000001A
:0400000508000B41A3
:00000001FF
