:020000040800F2
:10000000005000209D080008C5060008CB06000827
:10001000D1060008D7060008DD0600080000000031
:10002000000000000000000000000000E3060008DF
:10003000EF06000800000000FB06000807070008A4
:10004000E5080008E5080008E5080008E5080008DC
:10005000E5080008E5080008E5080008E5080008CC
:10006000E5080008E5080008E5080008E5080008BC
:10007000E5080008E5080008E5080008E5080008AC
:10008000E5080008E5080008E5080008E50800089C
:10009000E5080008E5080008E5080008E50800088C
:1000A000E5080008E5080008E5080008E50800087C
:1000B000E5080008E5080008E5080008E50800086C
:1000C000E5080008E5080008E5080008E50800085C
:1000D000E508000815070008E5080008E50800081D
:1000E000E5080008E5080008E50800080000000031
:1000F0000000000000000000000000000000000000
:0C01000000000000000000005FF808F1A3
:10010C0010B5054C237833B9044B13B10448AFF345
:10011C0000800123237010BD70000020000000003F
:10012C009448000808B5034B1BB103490348AFF3CF
:10013C00008008BD000000007400002094480008F6
:10014C00034613F8012B002AFBD1181A013870470B
:10015C0080B584B000AF3B1D00221A605A609A60D3
:10016C00184B194A1A60174B00229A60154B002243
:10017C001A73144B00221A75124B4FF46022DA6179
:10018C00104B00225A600F4B01221A610D4800F0EF
:10019C002BFC0346002B01D000F054F905237B60A7
:1001AC000123BB600023FB603B1D1946054800F092
:1001BC00F3FC0346002B01D000F044F900BF1037CC
:1001CC00BD4680BD8C0000200028014080B588B061
:1001DC0000AF786007F1100300221A605A609A6031
:1001EC00DA607B681B68144A934221D1134B9B69DC
:1001FC00124A43F480639361104B9B6903F4806350
:10020C00FB60FB680D4B9B690C4A43F00403936144
:10021C000A4B9B6903F00403BB60BB6820233B6162
:10022C0003237B6107F110031946054801F0B6F86A
:10023C0000BF2037BD4680BD0028014000100240A1
:10024C000008014080B588B000AF07F11003002210
:10025C001A605A609A60DA60234B9B69224A43F019
:10026C0010039361204B9B6903F01003FB60FB6848
:10027C001D4B9B691C4A43F0200393611A4B9B69ED
:10028C0003F02003BB60BB68174B9B69164A43F015
:10029C0004039361144B9B6903F004037B607B683C
:1002AC00114B9B69104A43F0080393610E4B9B69F9
:1002BC0003F008033B603B68012204210B4801F06A
:1002CC0008FA04233B6101237B610023BB610323F8
:1002DC00FB6107F110031946044801F05FF800BFF9
:1002EC002037BD4680BD00BF00100240000C01400D
:1002FC0080B586B000AF0023BB8200F0EFFA00F0AF
:10030C0041F8FFF79FFFFFF723FF00F067F900F0BC
:10031C0041FA184800F09CF801221749154802F0E0
:10032C0029FA164800F0CCFD4FF4FA7000F038FBB7
:10033C0003F0AFF840F2DC5000F032FB07F114038D
:10034C00184603F0AFF83B7D1A467B7D38460C49C6
:10035C0003F04AFA3B461846FFF7F2FE03469AB200
:10036C003B461946034802F0D0F94FF47A7000F07E
:10037C0017FBE3E7D8000020EE0100208C000020E2
:10038C00AC48000880B594B000AF07F128032822D0
:10039C000021184603F046F907F1140300221A60F5
:1003AC005A609A60DA601A613B1D00221A605A602A
:1003BC009A60DA600523BB624FF48033FB62002342
:1003CC003B630123BB6301237B6302237B644FF4F8
:1003DC008033BB644FF4E013FB6407F12803184629
:1003EC0001F09CF90346002B01D000F02BF80F23F1
:1003FC007B610223BB610023FB614FF480633B6292
:10040C0000237B6207F114030221184601F008FC5B
:10041C000346002B01D000F015F803237B604FF44A
:10042C008073BB604FF44043FB603B1D184601F0EA
:10043C0085FD0346002B01D000F004F800BF5037B7
:10044C00BD4680BD80B400AF72B600BFFEE70000B1
:10045C0080B582B000AF7860074A7B681360074BA9
:10046C001B68986800230222002103F0F7F800BFF4
:10047C000837BD4680BD00BFBC0000200C0000202A
:10048C0080B582B000AF78607B68002B04DB7B68A2
:10049C00022B01DC012305E003F09AF80346092244
:1004AC001A60002318460837BD4680BD80B586B05B
:1004BC0000AFF860B9607A60FB68012B02D0FB6872
:1004CC00022B11D10E4B18687B689AB24FF0FF3398
:1004DC00B96801F0F8FF0346FB75FB7D002B01D1D9
:1004EC007B6808E0052306E003F072F80346092256
:1004FC001A604FF0FF3318461837BD4680BD00BF59
:10050C00BC00002080B582B000AF78607B68002B07
:10051C0004DB7B68022B01DC002306E003F058F8B7
:10052C00034609221A604FF0FF3318460837BD46C0
:10053C0080BD80B584B000AFF860B9607A6003F01C
:10054C0047F8034609221A604FF0FF33184610375C
:10055C00BD4680BD80B586B000AFF860B9607A60EA
:10056C00FB68002B10D10E4B18684FF0FF330122A3
:10057C00B96802F033F80346FB75FB7D002B01D103
:10058C00012308E0052306E003F022F803460922C4
:10059C001A604FF0FF3318461837BD4680BD00BFB8
:1005AC00BC00002080B582B000AF786039607B68F9
:1005BC00002B08DB7B68022B05DC3B684FF40052F8
:1005CC005A60002305E003F003F8034609221A6081
:1005DC00002318460837BD4680BD000080B500AF2B
:1005EC000A4B0B4A1A60094B4FF0FF325A60074B0B
:1005FC004FF480729A60054801F00CFE0346002B04
:10060C0001D0FFF71FFF00BF80BD00BFC00000205E
:10061C000028004080B584B000AF78607B681B6810
:10062C000B4A934210D101F06DF80A4BDB69094A71
:10063C0043F00063D361074BDB6903F00063FB609D
:10064C00FB68054B01221A6000BF1037BD4680BD08
:10065C0000280040001002403C04424280B485B0A7
:10066C0000AF134B9B69124A43F001039361104B8B
:10067C009B6903F00103BB60BB680D4BDB690C4A43
:10068C0043F08053D3610A4BDB6903F080537B60EA
:10069C007B68084B5B68FB60FB6823F0E063FB60E6
:1006AC00044AFB68536000BF1437BD4680BC7047DA
:1006BC00001002400000014080B400AFFEE780B49F
:1006CC0000AFFEE780B400AFFEE780B400AFFEE7FA
:1006DC0080B400AFFEE780B400AF00BFBD4680BC65
:1006EC00704780B400AF00BFBD4680BC704780B47B
:1006FC0000AF00BFBD4680BC704780B500AF00F0B6
:10070C0033F900BF80BD000080B500AF024802F095
:10071C0057F800BF80BD00BFD800002080B586B060
:10072C0000AF7860144A154BD31A7B617B693B612F
:10073C00134B1B68002B02D1114B124A1A60104B41
:10074C001A687B6813443A699A4207D202F040FF58
:10075C0003460C221A604FF0FF3309E0084B1B686C
:10076C00FB60074B1A687B681344054A1360FB68EF
:10077C0018461837BD4680BD00500020000400000C
:10078C00D40000200002002080B400AF00BFBD46A2
:10079C0080BC704780B500AF114B124A1A60104BE9
:1007AC004FF4E1325A600E4B00229A600C4B00223F
:1007BC00DA600B4B00221A61094B0C225A61084B70
:1007CC0000229A61064B0022DA61054801F02BFEEB
:1007DC000346002B01D0FFF735FE00BF80BD00BFE4
:1007EC00D80000200038014080B588B000AF786098
:1007FC0007F1100300221A605A609A60DA607B6875
:10080C001B68204A934239D11F4B9B691E4A43F403
:10081C00804393611C4B9B6903F48043FB60FB6832
:10082C00194B9B69184A43F004039361164B9B695F
:10083C0003F00403BB60BB684FF400733B610223FD
:10084C007B610323FB6107F1100319460F4800F08D
:10085C00A5FD4FF480633B6100237B610023BB61EA
:10086C0007F110031946094800F098FD00220021F9
:10087C00252000F0AAFC252000F0C3FC00BF203787
:10088C00BD4680BD00380140001002400008014008
:10089C00FFF77AFF0B480C490C4A002302E0D458AE
:1008AC00C4500433C4188C42F9D3094A094C0023B0
:1008BC0001E013600432A242FBD302F08FFEFFF77B
:1008CC0017FD7047000000207000002098490008B8
:1008DC007000002000020020FEE7000080B500AF91
:1008EC00084B1B68074A43F010031360032000F009
:1008FC0061FC0F2000F008F8FFF7B0FE002318464B
:10090C0080BD00BF0020024080B582B000AF78608F
:10091C00124B1A68124B1B7819464FF47A73B3FBBF
:10092C00F1F3B2FBF3F3184600F079FC0346002B0D
:10093C0001D001230EE07B680F2B0AD800227968C6
:10094C004FF0FF3000F041FC064A7B681360002337
:10095C0000E0012318460837BD4680BD000000208A
:10096C00080000200400002080B400AF054B1B7869
:10097C001A46054B1B681344034A136000BFBD465F
:10098C0080BC7047080000202001002080B400AF1C
:10099C00024B1B681846BD4680BC704720010020E6
:1009AC0080B584B000AF7860FFF7F0FFB8607B686B
:1009BC00FB60FB68B3F1FF3F05D00A4B1B781A466E
:1009CC00FB681344FB6000BFFFF7E0FF0246BB6807
:1009DC00D31AFA689A42F7D800BF00BF1037BD4649
:1009EC0080BD00BF0800002080B586B000AF7860E5
:1009FC000023FB7500233B610023BB600023FB60DD
:100A0C007B68002B01D10123BEE07B689B68002B27
:100A1C007B689B6A002B09D17B680022DA627B68B9
:100A2C00002283F824207868FFF7D0FB786800F068
:100A3C0005FA0346FB757B689B6A03F01003002BD9
:100A4C0040F09980FB7D002B40F095807B689B6A81
:100A5C0023F4885323F0020343F002027B689A626A
:100A6C007B685A687B68DB691A437B681B7B5B007D
:100A7C001343BA681343BB607B689B68B3F5807FF4
:100A8C0003D07B689B68012B02D14FF4807300E08C
:100A9C0000233A6913433B617B681B7D012B19D101
:100AAC007B681B7B002B09D17B689B69013B5A033C
:100ABC003B69134343F400633B610BE07B689B6A27
:100ACC0043F020027B689A627B68DB6A43F0010288
:100ADC007B68DA627B681B685B6823F469417B681E
:100AEC001B683A690A435A607B681B689A68284BF2
:100AFC0013407A681268B9680B4393607B689B68F3
:100B0C00B3F5807F03D07B689B68012B04D17B6895
:100B1C001B69013B1B05FB607B681B68DB6A23F4CC
:100B2C0070017B681B68FA680A43DA627B681B6891
:100B3C009A68184B1340BA689A420BD17B68002212
:100B4C00DA627B689B6A23F0030343F001027B6843
:100B5C009A6218E07B689B6A23F0120343F0100240
:100B6C007B689A627B68DB6A43F001027B68DA621D
:100B7C000123FB7507E07B689B6A43F010027B68DE
:100B8C009A620123FB75FB7D18461837BD4680BD64
:100B9C00FDF7E1FFFE0E1FFF80B485B000AF78605B
:100BAC0039600023FB730023BB607B6893F824300F
:100BBC00012B01D10223DCE07B68012283F8242085
:100BCC003B685B68062B1CD87B681B68596B3B68C1
:100BDC005A6813469B001344053B1F2202FA03F389
:100BEC00DB4319403B6818683B685A6813469B0006
:100BFC001344053B00FA03F27B681B680A435A63F3
:100C0C003CE03B685B680C2B1CD87B681B68196B41
:100C1C003B685A6813469B001344233B1F2202FA7D
:100C2C0003F3DB4319403B6818683B685A6813466A
:100C3C009B001344233B00FA03F27B681B680A43B6
:100C4C001A631BE07B681B68D96A3B685A681346B9
:100C5C009B001344413B1F2202FA03F3DB43194070
:100C6C003B6818683B685A6813469B001344413B29
:100C7C0000FA03F27B681B680A43DA623B681B6864
:100C8C00092B1CD97B681B68D9683B681A6813460A
:100C9C005B0013441E3B072202FA03F3DB431940AB
:100CAC003B6898683B681A6813465B0013441E3B0C
:100CBC0000FA03F27B681B680A43DA6019E07B6870
:100CCC001B6819693B681A6813465B0013440722BA
:100CDC0002FA03F3DB4319403B6898683B681A68D7
:100CEC0013465B00134400FA03F27B681B680A434B
:100CFC001A613B681B68102B03D03B681B68112BD7
:100D0C0032D17B681B681D4A934225D17B681B68D6
:100D1C009B6803F40003002B26D17B681B689A6840
:100D2C007B681B6842F400029A603B681B68102BBE
:100D3C001AD1134B1B68134AA2FB03239A0C1346BC
:100D4C009B0013445B00BB6002E0BB68013BBB60D3
:100D5C00BB68002BF9D107E07B689B6A43F020024B
:100D6C007B689A620123FB737B68002283F8242042
:100D7C00FB7B18461437BD4680BC704700240140ED
:100D8C000000002083DE1B4380B584B000AF786088
:100D9C000023FB600023BB607B681B689B6803F02F
:100DAC000103012B40D07B681B689A687B681B6829
:100DBC0042F001029A601F4B1B681F4AA2FB0323DF
:100DCC009B0CBB6002E0BB68013BBB60BB68002BAB
:100DDC00F9D1FFF7DBFDF8601FE0FFF7D7FD024606
:100DEC00FB68D31A022B18D97B681B689B6803F02D
:100DFC000103012B11D07B689B6A43F010027B68C6
:100E0C009A627B68DB6A43F001027B68DA627B687A
:100E1C00002283F82420012307E07B681B689B6871
:100E2C0003F00103012BD8D1002318461037BD461F
:100E3C0080BD00BF0000002083DE1B4380B584B062
:100E4C0000AF78600023FB607B681B689B6803F035
:100E5C000103012B2ED17B681B689A687B681B6889
:100E6C0022F001029A60FFF791FDF8601BE0FFF79A
:100E7C008DFD0246FB68D31A022B14D97B681B68C4
:100E8C009B6803F00103012B0DD17B689B6A43F037
:100E9C0010027B689A627B68DB6A43F001027B6814
:100EAC00DA62012307E07B681B689B6803F001038F
:100EBC00012BDCD0002318461037BD4680BD000046
:100ECC0090B587B000AF78600023FB750023FB6002
:100EDC007B6893F82430012B01D1022397E07B68C7
:100EEC00012283F824207868FFF7A8FF0346FB75DE
:100EFC007868FFF749FF0346FB75FB7D002B40F03C
:100F0C0081807B689B6A23F4885323F0020343F0AF
:100F1C0002027B689A62404B1C68022001F0C4F804
:100F2C000346B4FBF3F35B00FB6002E0FB68013BA0
:100F3C00FB60FB68002BF9D17B681B689A687B68A7
:100F4C001B6842F008029A60FFF720FD38611BE035
:100F5C00FFF71CFD02463B69D31A0A2B14D97B6898
:100F6C001B689B6803F00803002B0DD07B689B6A01
:100F7C0023F0120343F010027B689A627B68002214
:100F8C0083F82420012342E07B681B689B6803F0F4
:100F9C000803002BDCD17B681B689A687B681B6894
:100FAC0042F004029A60FFF7F1FC38611BE0FFF796
:100FBC00EDFC02463B69D31A0A2B14D97B681B68DB
:100FCC009B6803F00403002B0DD07B689B6A23F015
:100FDC00120343F010027B689A627B68002283F84C
:100FEC002420012313E07B681B689B6803F0040337
:100FFC00002BDCD17B689B6A23F0030343F00102D6
:10100C007B689A627B68002283F82420FB7D18465B
:10101C001C37BD4690BD00BF0000002080B485B0D9
:10102C0000AF78607B6803F00703FB600C4BDB6858
:10103C00BB60BA684FF6FF031340BB60FB681A0233
:10104C00BB68134343F0BF6343F40033BB60044AF3
:10105C00BB68D36000BF1437BD4680BC704700BF6F
:10106C0000ED00E080B400AF044BDB681B0A03F01A
:10107C0007031846BD4680BC704700BF00ED00E07A
:10108C0080B483B000AF0346FB7197F90730002B97
:10109C000BDBFB7903F01F02064997F907305B095C
:1010AC00012000FA02F241F8232000BF0C37BD46A4
:1010BC0080BC704700E100E080B483B000AF034611
:1010CC003960FB7197F90730002B0ADB3B68DAB209
:1010DC000C4997F907301201D2B20B4483F8002364
:1010EC000AE03B68DAB20849FB7903F00F03043BD2
:1010FC001201D2B20B441A7600BF0C37BD4680BC2D
:10110C00704700BF00E100E000ED00E080B489B062
:10111C0000AFF860B9607A60FB6803F00703FB610D
:10112C00FB69C3F10703042B28BF0423BB61FB69D4
:10113C000433062B02D9FB69033B00E000237B61DF
:10114C004FF0FF32BB6902FA03F3DA43BB681A4073
:10115C007B699A404FF0FF317B6901FA03F3D94365
:10116C007B680B40134318462437BD4680BC704740
:10117C0080B582B000AF78607B68013BB3F1807FB3
:10118C0001D301230FE00A4A7B68013B53600F2116
:10119C004FF0FF30FFF790FF054B00229A60044B95
:1011AC0007221A60002318460837BD4680BD00BFD1
:1011BC0010E000E080B582B000AF78607868FFF78F
:1011CC002DFF00BF0837BD4680BD80B586B000AF8F
:1011DC000346B9607A60FB7300237B61FFF742FF23
:1011EC0078617A68B9687869FFF790FF024697F9D9
:1011FC000F3011461846FFF75FFF00BF1837BD468A
:10120C0080BD80B582B000AF0346FB7197F9073003
:10121C001846FFF735FF00BF0837BD4680BD80B5C7
:10122C0082B000AF78607868FFF7A2FF03461846DB
:10123C000837BD4680BD80B485B000AF7860002310
:10124C00FB737B6893F82130DBB2022B08D07B68F0
:10125C0004229A637B68002283F82020012320E07B
:10126C007B681B681A687B681B6822F00E021A6088
:10127C007B681B681A687B681B6822F001021A6085
:10128C007B681A6C7B68DB6B012101FA02F25A60F5
:10129C007B68012283F821207B68002283F82020C0
:1012AC00FB7B18461437BD4680BC704780B584B0B4
:1012BC0000AF78600023FB737B6893F82130DBB2BE
:1012CC00022B05D07B6804229A630123FB7351E047
:1012DC007B681B681A687B681B6822F00E021A6018
:1012EC007B681B681A687B681B6822F001021A6015
:1012FC007B681B68224A934229D07B681B68214A71
:10130C00934222D07B681B681F4A93421AD07B6899
:10131C001B681E4A934212D07B681B681C4A93427E
:10132C000AD07B681B681B4A934202D14FF480138E
:10133C000EE04FF080730BE04FF4803308E04FF475
:10134C00805305E04FF4807302E0102300E001238A
:10135C00114A53607B68012283F821207B680022AC
:10136C0083F820207B685B6B002B03D07B685B6B66
:10137C0078689847FB7B18461037BD4680BD00BF88
:10138C00080002401C0002403000024044000240B1
:10139C00580002406C0002400000024080B48BB048
:1013AC0000AF7860396000237B6200233B6269E107
:1013BC0001227B6A02FA03F3FB613B681B68FA6942
:1013CC001340BB61BA69FB699A4240F058813B6893
:1013DC005B689A4A93425ED0984A934275D8984A71
:1013EC00934258D0964A93426FD8964A934252D021
:1013FC00944A934269D8944A93424CD0924A93426D
:10140C0063D8924A934246D0904A93425DD8122BAD
:10141C002AD8122B59D801A252F823F0A314000891
:10142C007D1400088F140008D1140008D71400088C
:10143C00D7140008D7140008D7140008D7140008D4
:10144C00D7140008D7140008D7140008D7140008C4
:10145C00D7140008D7140008D7140008D7140008B4
:10146C008514000899140008794A934213D02CE093
:10147C003B68DB683B6229E03B68DB6804333B621A
:10148C0024E03B68DB6808333B621FE03B68DB68A9
:10149C000C333B621AE03B689B68002B02D104239F
:1014AC003B6213E03B689B68012B05D108233B6230
:1014BC007B68FA691A6109E008233B627B68FA6968
:1014CC005A6103E000233B6200E000BFBB69FF2BC5
:1014DC0001D87B6801E07B6804337B61BB69FF2B1F
:1014EC0002D87B6A9B0002E07B6A083B9B003B6155
:1014FC007B691A680F213B6901FA03F3DB431A403D
:10150C00396A3B6901FA03F31A437B691A603B6839
:10151C005B6803F08053002B00F0B1804D4B9B694E
:10152C004C4A43F0010393614A4B9B6903F001035E
:10153C00BB60BB68484A7B6A9B08023352F8233075
:10154C00FB607B6A03F003039B000F2202FA03F398
:10155C00DB43FA681340FB607B68404A934213D02C
:10156C007B683F4A93420DD07B683E4A934207D03A
:10157C007B683D4A934201D1032306E0042304E037
:10158C00022302E0012300E000237A6A02F0030246
:10159C0092009340FA681343FB602F497B6A9B08C7
:1015AC000233FA6841F823203B685B6803F480132C
:1015BC00002B06D02D4B9A682C49BB6913438B60CA
:1015CC0006E02A4B9A68BB69DB43284913408B60C1
:1015DC003B685B6803F40013002B06D0234BDA68DE
:1015EC002249BB691343CB6006E0204BDA68BB6928
:1015FC00DB431E491340CB603B685B6803F400334C
:10160C00002B06D0194B5A681849BB6913434B6021
:10161C0006E0164B5A68BB69DB43144913404B6018
:10162C003B685B6803F48033002B21D00F4B1A68A6
:10163C000E49BB6913430B6021E000BF0000321060
:10164C0000003110000022100000211000001210C8
:10165C000000111000100240000001400008014081
:10166C00000C014000100140001401400004014036
:10167C000B4B1A68BB69DB43094913400B607B6A4F
:10168C0001337B623B681A687B6A22FA03F3002BF6
:10169C007FF48EAE00BF00BF2C37BD4680BC7047B8
:1016AC000004014080B485B000AF78600B467B80AD
:1016BC007B689A687B881340002B02D00123FB7354
:1016CC0001E00023FB73FB7B18461437BD4680BC3E
:1016DC00704780B483B000AF78600B467B801346B4
:1016EC007B707B78002B03D07A887B681A6103E0CF
:1016FC007B881A047B681A6100BF0C37BD4680BC1E
:10170C007047000080B400AF034B01221A6000BF89
:10171C00BD4680BC704700BF20000E4280B586B02D
:10172C0000AF78607B68002B01D1012372E27B68EB
:10173C001B6803F00103002B00F08780924B5B6861
:10174C0003F00C03042B0CD08F4B5B6803F00C03E1
:10175C00082B12D18C4B5B6803F48033B3F5803FBC
:10176C000BD1894B1B6803F40033002B6CD07B68C6
:10177C005B68002B68D101234CE27B685B68B3F596
:10178C00803F06D1804B1B687F4A43F48033136043
:10179C002EE07B685B68002B0CD17B4B1B687A4A74
:1017AC0023F480331360784B1B68774A23F480232F
:1017BC0013601DE07B685B68B3F5A02F0CD1724BF6
:1017CC001B68714A43F4802313606F4B1B686E4A8D
:1017DC0043F4803313600BE06B4B1B686A4A23F4B1
:1017EC0080331360684B1B68674A23F480231360B3
:1017FC007B685B68002B13D0FFF7C8F8386108E0F2
:10180C00FFF7C4F802463B69D31A642B01D90323B2
:10181C0000E25D4B1B6803F40033002BF0D014E0A6
:10182C00FFF7B4F8386108E0FFF7B0F802463B69FF
:10183C00D31A642B01D90323ECE1534B1B6803F43B
:10184C000033002BF0D100E000BF7B681B6803F075
:10185C000203002B63D04C4B5B6803F00C03002B92
:10186C000BD0494B5B6803F00C03082B1CD1464B87
:10187C005B6803F48033002B16D1434B1B6803F0D9
:10188C000203002B05D07B681B69012B01D00123BF
:10189C00C0E13D4B1B6823F0F8027B685B69DB0001
:1018AC00394913430B603AE07B681B69002B20D04D
:1018BC00364B01221A60FFF769F8386108E0FFF730
:1018CC0065F802463B69D31A022B01D90323A1E127
:1018DC002D4B1B6803F00203002BF0D02A4B1B6826
:1018EC0023F0F8027B685B69DB00274913430B602C
:1018FC0015E0264B00221A60FFF748F8386108E023
:10190C00FFF744F802463B69D31A022B01D9032393
:10191C0080E11D4B1B6803F00203002BF0D17B68A8
:10192C001B6803F00803002B3AD07B689B69002BE3
:10193C0019D0174B01221A60FFF728F8386108E01C
:10194C00FFF724F802463B69D31A022B01D9032373
:10195C0060E10D4B5B6A03F00203002BF0D0012019
:10196C0000F0CEFA1CE00A4B00221A60FFF70EF8CA
:10197C0038610FE0FFF70AF802463B69D31A022BD5
:10198C0008D9032346E100BF001002400000424288
:10199C0080044242924B5B6A03F00203002BE9D1B4
:1019AC007B681B6803F00403002B00F0A680002367
:1019BC00FB758B4BDB6903F08053002B0DD1884BEF
:1019CC00DB69874A43F08053D361854BDB6903F0B5
:1019DC008053BB60BB680123FB75824B1B6803F40F
:1019EC008073002B18D17F4B1B687E4A43F48073A5
:1019FC001360FEF7CBFF386108E0FEF7C7FF024625
:101A0C003B69D31A642B01D9032303E1754B1B6883
:101A1C0003F48073002BF0D07B68DB68012B06D1BC
:101A2C006F4B1B6A6E4A43F0010313622DE07B6817
:101A3C00DB68002B0CD16A4B1B6A694A23F001034B
:101A4C001362674B1B6A664A23F0040313621CE0A3
:101A5C007B68DB68052B0CD1614B1B6A604A43F039
:101A6C00040313625E4B1B6A5D4A43F0010313626D
:101A7C000BE05B4B1B6A5A4A23F001031362584B71
:101A8C001B6A574A23F0040313627B68DB68002B44
:101A9C0015D0FEF77BFF38610AE0FEF777FF0246B0
:101AAC003B69D31A41F28832934201D90323B1E046
:101ABC004B4B1B6A03F00203002BEED014E0FEF735
:101ACC0065FF38610AE0FEF761FF02463B69D31AF5
:101ADC0041F28832934201D903239BE0404B1B6AAD
:101AEC0003F00203002BEED1FB7D012B05D13C4B07
:101AFC00DB693B4A23F08053D3617B68DB69002BA5
:101B0C0000F08780364B5B6803F00C03082B61D028
:101B1C007B68DB69022B46D1334B00221A60FEF73F
:101B2C0035FF386108E0FEF731FF02463B69D31AF6
:101B3C00022B01D903236DE0294B1B6803F00073C2
:101B4C00002BF0D17B681B6AB3F5803F08D1244B86
:101B5C005B6823F400327B689B68214913434B601C
:101B6C001F4B5B6823F474127B68196A7B685B6A91
:101B7C000B431B4913434B601B4B01221A60FEF7AE
:101B8C0005FF386108E0FEF701FF02463B69D31AF6
:101B9C00022B01D903233DE0114B1B6803F00073AA
:101BAC00002BF0D035E0104B00221A60FEF7EEFE51
:101BBC00386108E0FEF7EAFE02463B69D31A022BB5
:101BCC0001D9032326E0064B1B6803F00073002B9E
:101BDC00F0D11EE07B68DB69012B07D1012319E0F2
:101BEC000010024000700040600042420B4B5B68EA
:101BFC00FB60FB6803F480327B681B6A9A4206D157
:101C0C00FB6803F470127B685B6A9A4201D0012373
:101C1C0000E0002318461837BD4680BD0010024076
:101C2C0080B584B000AF786039607B68002B01D13F
:101C3C000123D0E06A4B1B6803F007033A689A4211
:101C4C0010D9674B1B6823F0070265493B681343A7
:101C5C000B60634B1B6803F007033A689A4201D090
:101C6C000123B8E07B681B6803F00203002B20D033
:101C7C007B681B6803F00403002B05D0594B5B6891
:101C8C00584A43F4E06353607B681B6803F0080315
:101C9C00002B05D0534B5B68524A43F4605353609E
:101CAC00504B5B6823F0F0027B689B684D491343F3
:101CBC004B607B681B6803F00103002B40D07B68F2
:101CCC005B68012B07D1474B1B6803F40033002BD7
:101CDC0015D101237FE07B685B68022B07D1414B58
:101CEC001B6803F00073002B09D1012373E03D4BFB
:101CFC001B6803F00203002B01D101236BE0394B6D
:101D0C005B6823F003027B685B68364913434B60C6
:101D1C00FEF73CFEF8600AE0FEF738FE0246FB6870
:101D2C00D31A41F28832934201D9032353E02D4B4D
:101D3C005B6803F00C027B685B689B009A42EBD1FA
:101D4C00274B1B6803F007033A689A4210D2244BC6
:101D5C001B6823F0070222493B6813430B60204B9E
:101D6C001B6803F007033A689A4201D0012332E062
:101D7C007B681B6803F00403002B08D0194B5B68CD
:101D8C0023F4E0627B68DB68164913434B607B6885
:101D9C001B6803F00803002B09D0124B5B6823F47B
:101DAC0060527B681B69DB000E4913434B6000F0EB
:101DBC0021F802460B4B5B681B0903F00F030A4921
:101DCC00CB5C22FA03F3094A1360094B1B681846D3
:101DDC00FEF79AFD002318461037BD4680BD00BFA4
:101DEC000020024000100240B8480008000000200B
:101DFC000400002080B487B000AF0023FB600023F8
:101E0C00BB6000237B6100237B6000233B611E4B86
:101E1C005B68FB60FB6803F00C03042B02D0082BFF
:101E2C0003D027E0194B3B6127E0FB689B0C03F0C8
:101E3C000F03174AD35C7B60FB6803F48033002BE1
:101E4C0010D0114B5B685B0C03F00103114AD35C9F
:101E5C00BB607B680D4A03FB02F2BB68B2FBF3F379
:101E6C007B6104E07B680C4A02FB03F37B617B69BA
:101E7C003B6102E0054B3B6100BF3B6918461C37D8
:101E8C00BD4680BC704700BF0010024000127A00B3
:101E9C00D0480008E048000800093D0080B400AFBD
:101EAC00024B1B681846BD4680BC704700000020E2
:101EBC0080B500AFFFF7F2FF0246054B5B681B0ACB
:101ECC0003F007030349CB5C22FA03F3184680BDE9
:101EDC0000100240C848000880B500AFFFF7DEFFD5
:101EEC000246054B5B68DB0A03F007030349CB5C36
:101EFC0022FA03F3184680BD00100240C8480008BF
:101F0C0080B485B000AF78600A4B1B680A4AA2FB0C
:101F1C0003235B0A7A6802FB03F3FB6000BFFB68D8
:101F2C005A1EFA60002BF9D100BF00BF1437BD4612
:101F3C0080BC704700000020D34D621080B586B085
:101F4C0000AF786000233B610023FB607B681B685B
:101F5C0003F00103002B7DD00023FB754F4BDB6995
:101F6C0003F08053002B0DD14C4BDB694B4A43F0F3
:101F7C008053D361494BDB6903F08053BB60BB6872
:101F8C000123FB75464B1B6803F48073002B18D19F
:101F9C00434B1B68424A43F480731360FEF7F6FC14
:101FAC00386108E0FEF7F2FC02463B69D31A642B59
:101FBC0001D903236DE03A4B1B6803F48073002BAB
:101FCC00F0D0364B1B6A03F44073FB60FB68002BAC
:101FDC002ED07B685B6803F44073FA689A4227D072
:101FEC002E4B1B6A23F44073FB602E4B01221A60AC
:101FFC002C4B00221A60294AFB681362FB6803F021
:10200C000103002B14D0FEF7C1FC38610AE0FEF787
:10201C00BDFC02463B69D31A41F28832934201D986
:10202C00032336E01D4B1B6A03F00203002BEED09A
:10203C001A4B1B6A23F440727B685B681749134385
:10204C000B62FB7D012B05D1144BDB69134A23F08A
:10205C008053D3617B681B6803F00203002B08D00C
:10206C000E4B5B6823F440427B689B680B4913431F
:10207C004B607B681B6803F01003002B08D0074BE8
:10208C005B6823F480027B68DB68044913434B6074
:10209C00002318461837BD4680BD00BF0010024013
:1020AC00007000404004424280B588B000AF7860B8
:1020BC0000237B610023FB6100233B610023FB6059
:1020CC000023BB617B68102B0AD07B68102B00F2BD
:1020DC008A807B68012B45D07B68022B75D082E00F
:1020EC00464B5B68FB60454B1B6803F08073002B11
:1020FC007BD0FB689B0C03F00F03414AD35C3B6124
:10210C00FB6803F48033002B15D03C4B5B685B0CF5
:10211C0003F001033B4AD35C7B61FB6803F480331F
:10212C00002B0DD0384A7B69B2FBF3F23B6902FB02
:10213C0003F3FB6104E03B69344A02FB03F3FB61EC
:10214C002E4B5B6803F48003B3F5800F02D1FB695F
:10215C00BB614AE0FB695B002D4AA2FB03235B08D1
:10216C00BB6142E0254B1B6AFB60FB6803F44073C8
:10217C00B3F5807F08D1FB6803F00203002B03D07A
:10218C004FF40043BB611FE0FB6803F44073B3F5ED
:10219C00007F09D1194B5B6A03F00203002B03D0BB
:1021AC0049F64043BB610FE0FB6803F44073B3F5A1
:1021BC00407F1CD1114B1B6803F40033002B16D04D
:1021CC004FF22443BB6112E011E0FFF785FE02469B
:1021DC000A4B5B689B0B03F0030301335B00B2FB00
:1021EC00F3F3BB6104E000BF02E000BF00E000BFFE
:1021FC00BB6918462037BD4680BD00BF00100240A9
:10220C00E4480008F448000800127A0000093D0078
:10221C00ABAAAAAA80B584B000AF78600023FB609B
:10222C007B68002B01D101237AE07B685B7CDBB2FD
:10223C00002B05D17B6800221A747868FEF7EAF946
:10224C007B6802225A74786800F070F80346002B01
:10225C0004D07B6804225A74012361E0786800F092
:10226C0092F80346002B04D07B6804225A74012395
:10227C0056E07B681B685A687B681B6822F0070273
:10228C005A607B689B68002B05D0274B1B6B264A3A
:10229C0023F001031363244BDB6A23F460727B6825
:1022AC009B6821491343CB627B685B68B3F1FF3FAA
:1022BC0003D07B685B68FB600EE00120FFF7F4FE47
:1022CC00F860FB68002B04D17B6804225A7401234C
:1022DC0026E0FB68013BFB60FB681A0C7B681B6803
:1022EC0002F00F029A607B681B68FA6892B2DA609F
:1022FC00786800F070F80346002B04D07B68042249
:10230C005A7401230CE07B680022DA737B6801228B
:10231C005A737B6801229A737B6801225A740023DA
:10232C0018461037BD4680BD006C004080B584B0A7
:10233C0000AF78600023FB607B68002B01D1012388
:10234C001DE07B681B685A687B681B6822F00802DA
:10235C005A60FEF71BFBF86009E0FEF717FB02461C
:10236C00FB68D31AB3F57A7F01D9032307E07B68A6
:10237C001B685B6803F00803002BEED000231846A3
:10238C001037BD4680BD80B584B000AF78600023A7
:10239C00FB60FEF7FBFAF86009E0FEF7F7FA02467D
:1023AC00FB68D31AB3F57A7F01D903230FE07B685E
:1023BC001B685B6803F02003002BEED07B681B6866
:1023CC005A687B681B6842F010025A60002318465A
:1023DC001037BD4680BD80B584B000AF7860002357
:1023EC00FB607B681B685A687B681B6822F01002D4
:1023FC005A60FEF7CBFAF86009E0FEF7C7FA02461E
:10240C00FB68D31AB3F57A7F01D9032307E07B6805
:10241C001B685B6803F02003002BEED000231846EA
:10242C001037BD4680BD80B582B000AF78607B6848
:10243C00002B01D1012342E07B6893F84130DBB2E1
:10244C00002B06D17B68002283F840207868FEF7C9
:10245C00CBF97B68242283F841207B681B68DA68FF
:10246C007B681B6822F40052DA60786800F084FE06
:10247C007B681B681A697B681B6822F490421A619E
:10248C007B681B685A697B681B6822F02A025A61B8
:10249C007B681B68DA687B681B6842F40052DA6060
:1024AC007B6800225A647B68202283F841207B6879
:1024BC00202283F842207B6800225A6300231846AE
:1024CC000837BD4680BD80B58AB002AFF860B960F0
:1024DC003B601346FB8000237B61FB6893F8413023
:1024EC00DBB2202B75D1BB68002B02D0FB88002BF4
:1024FC0001D101236EE0FB6800225A64FB682122A3
:10250C0083F84120FEF742FA7861FB68FA889A84D6
:10251C00FB68FA88DA84FB689B68B3F5805F08D1A6
:10252C00FB681B69002B04D10023FB61BB68BB61FA
:10253C0003E0BB68FB610023BB612EE03B680093AA
:10254C007B6900228021F86800F0E9FB0346002B30
:10255C0005D0FB68202283F8412003233AE0FB6975
:10256C00002B0BD1BB691B881A46FB681B68C2F396
:10257C0008025A60BB690233BB6107E0FB691A7839
:10258C00FB681B685A60FB690133FB61FB68DB8CE1
:10259C009BB2013B9AB2FB68DA84FB68DB8C9BB282
:1025AC00002BCBD13B6800937B6900224021F8685B
:1025BC0000F0B5FB0346002B05D0FB68202283F806
:1025CC004120032306E0FB68202283F841200023EE
:1025DC0000E0022318462037BD4680BD80B58AB086
:1025EC0002AFF860B9603B601346FB8000237B614F
:1025FC00FB6893F84230DBB2202B40F08180BB6843
:10260C00002B02D0FB88002B01D1012379E0FB6861
:10261C0000225A64FB68222283F84220FB680022C5
:10262C001A63FEF7B3F97861FB68FA889A85FB6840
:10263C00FA88DA85FB689B68B3F5805F08D1FB6884
:10264C001B69002B04D10023FB61BB68BB6103E059
:10265C00BB68FB610023BB6147E03B6800937B696F
:10266C0000222021F86800F05AFB0346002B05D00D
:10267C00FB68202283F84220032342E0FB69002BF5
:10268C000CD1FB681B685B689BB2C3F308039AB25E
:10269C00BB691A80BB690233BB611FE0FB689B6896
:1026AC00B3F5805F07D0FB689B68002B0AD1FB68F1
:1026BC001B69002B06D1FB681B685B68DAB2FB69EF
:1026CC001A7008E0FB681B685B68DBB203F07F03E1
:1026DC00DAB2FB691A70FB690133FB61FB68DB8DB5
:1026EC009BB2013B9AB2FB68DA85FB68DB8D9BB22F
:1026FC00002BB2D1FB68202283F84220002300E09B
:10270C00022318462037BD4680BD80B485B000AF8B
:10271C00F860B9601346FB80FB6893F84130DBB27C
:10272C00202B21D1BB68002B02D0FB88002B01D1C0
:10273C0001231AE0FB68BA681A62FB68FA889A846B
:10274C00FB68FA88DA84FB6800225A64FB68212251
:10275C0083F84120FB681B68DA68FB681B6842F051
:10276C008002DA60002300E0022318461437BD46CD
:10277C0080BC704780B584B000AFF860B960134678
:10278C00FB80FB6893F84230DBB2202B12D1BB6884
:10279C00002B02D0FB88002B01D101230BE0FB683E
:1027AC0000221A63FB881A46B968F86800F010FB1F
:1027BC00034600E0022318461037BD4680BD0000DA
:1027CC0080B5BAB000AF78607B681B681B68C7F82F
:1027DC00E4307B681B68DB68C7F8E0307B681B68FB
:1027EC005B69C7F8DC300023C7F8D8300023C7F882
:1027FC00D430D7F8E43003F00F03C7F8D830D7F84B
:10280C00D830002B0FD1D7F8E43003F02003002B85
:10281C0009D0D7F8E03003F02003002B03D0786800
:10282C0000F0ECFB5BE2D7F8D830002B00F0DE8038
:10283C00D7F8DC3003F00103002B06D1D7F8E030D9
:10284C0003F49073002B00F0D180D7F8E43003F040
:10285C000103002B0BD0D7F8E03003F48073002B6E
:10286C0005D07B685B6C43F001027B685A64D7F837
:10287C00E43003F00403002B0BD0D7F8DC3003F06A
:10288C000103002B05D07B685B6C43F002027B6874
:10289C005A64D7F8E43003F00203002B0BD0D7F8BE
:1028AC00DC3003F00103002B05D07B685B6C43F03C
:1028BC0004027B685A64D7F8E43003F00803002B59
:1028CC0011D0D7F8E03003F02003002B05D1D7F856
:1028DC00DC3003F00103002B05D07B685B6C43F00C
:1028EC0008027B685A647B685B6C002B00F0F281F9
:1028FC00D7F8E43003F02003002B08D0D7F8E030F1
:10290C0003F02003002B02D0786800F077FB7B6883
:10291C001B685B6903F04003002B14BF01230023E9
:10292C00DBB2C7F8D4307B685B6C03F00803002B78
:10293C0003D1D7F8D430002B4FD0786800F081FA4F
:10294C007B681B685B6903F04003002B41D07B68FC
:10295C001B681433C7F89C30D7F89C3053E8003F01
:10296C00C7F89830D7F8983023F04003C7F8D03028
:10297C007B681B681433D7F8D020C7F8A820C7F899
:10298C00A430D7F8A410D7F8A82041E80023C7F842
:10299C00A030D7F8A030002BD9D17B68DB6B002B93
:1029AC0013D07B68DB6B7E4A5A637B68DB6B184603
:1029BC00FEF77CFC0346002B16D07B68DB6B5B6B55
:1029CC007A68D26B104698470EE0786800F093F95D
:1029DC000AE0786800F08FF906E0786800F08BF96F
:1029EC007B6800225A6475E100BF73E17B681B6B46
:1029FC00012B40F04F81D7F8E43003F01003002B8B
:102A0C0000F04881D7F8E03003F01003002B00F001
:102A1C0041810023BB607B681B681B68BB607B68C3
:102A2C001B685B68BB60BB687B681B685B6903F0F9
:102A3C004003002B00F0B6807B68DB6B1B685B6887
:102A4C00A7F8BE30B7F8BE30002B00F045817B688C
:102A5C009B8DB7F8BE209A4280F03E817B68B7F818
:102A6C00BE20DA857B68DB6B9B69202B00F08880AD
:102A7C007B681B680C33C7F88830D7F8883053E86C
:102A8C00003FC7F88430D7F8843023F48073C7F83C
:102A9C00B8307B681B680C33D7F8B820C7F8942083
:102AAC00C7F89030D7F89010D7F8942041E800235D
:102ABC00C7F88C30D7F88C30002BD9D17B681B68C9
:102ACC0014337B677B6F53E8003F3B673B6F23F00E
:102ADC000103C7F8B4307B681B681433D7F8B420F3
:102AEC00C7F88020FB67F96FD7F8802041E80023F6
:102AFC00BB67BB6F002BE1D17B681B6814333B6653
:102B0C003B6E53E8003FFB65FB6D23F04003C7F8B9
:102B1C00B0307B681B681433D7F8B020FA66BB66FC
:102B2C00B96EFA6E41E800237B667B6E002BE3D115
:102B3C007B68202283F842207B6800221A637B6822
:102B4C001B680C33FB64FB6C53E8003FBB64BB6C31
:102B5C0023F01003C7F8AC307B681B680C33D7F834
:102B6C00AC20BA657B65796DBA6D41E800233B6595
:102B7C003B6D002BE3D17B68DB6B1846FEF75BFBF0
:102B8C007B6802225A637B689A8D7B68DB8D9BB2D3
:102B9C00D31A9BB21946786800F0B6F89CE000BFD7
:102BAC00132F00087B689A8D7B68DB8D9BB2D31A40
:102BBC00A7F8CE307B68DB8D9BB2002B00F08E80AB
:102BCC00B7F8CE30002B00F089807B681B680C3383
:102BDC00BB63BB6B53E8003F7B637B6B23F490734D
:102BEC00C7F8C8307B681B680C33D7F8C8207A64E8
:102BFC003B64396C7A6C41E80023FB63FB6B002B64
:102C0C00E3D17B681B6814337B627B6A53E8003F1B
:102C1C003B623B6A23F00103C7F8C4307B681B6836
:102C2C001433D7F8C4203A63FB62F96A3A6B41E873
:102C3C000023BB62BB6A002BE3D17B68202283F8A4
:102C4C0042207B6800221A637B681B680C333B6153
:102C5C003B6953E8003FFB60FB6823F01003C7F8A7
:102C6C00C0307B681B680C33D7F8C020FA61BB619D
:102C7C00B969FA6941E800237B617B69002BE3D1D8
:102C8C007B6802225A63B7F8CE301946786800F098
:102C9C003BF823E0D7F8E43003F08003002B09D095
:102CAC00D7F8E03003F08003002B03D0786800F0F5
:102CBC003EF914E0D7F8E43003F04003002B0ED0BB
:102CCC00D7F8E03003F04003002B08D0786800F010
:102CDC007DF904E000BF02E000BF00E000BFE83770
:102CEC00BD4680BD80B483B000AF786000BF0C37A8
:102CFC00BD4680BC704780B483B000AF786000BF25
:102D0C000C37BD4680BC704780B483B000AF786090
:102D1C000B467B8000BF0C37BD4680BC704780B52E
:102D2C0086B000AFF860B9603B601346FB713BE0C6
:102D3C003B6AB3F1FF3F37D0FDF728FE02463B68F4
:102D4C00D31A3A6A9A4202D33B6A002B01D103236D
:102D5C003AE0FB681B68DB6803F00403002B23D00C
:102D6C00BB68802B20D0BB68402B1DD0FB681B6838
:102D7C001B6803F00803082B16D100237B61FB684A
:102D8C001B681B687B61FB681B685B687B617B69EC
:102D9C00F86800F056F8FB6808225A64FB680022B9
:102DAC0083F8402001230FE0FB681B681A68BB689E
:102DBC001340BA689A420CBF01230023DBB21A46B7
:102DCC00FB799A42B4D0002318461837BD4680BD13
:102DDC0080B485B000AFF860B9601346FB80FB6827
:102DEC00BA689A62FB68FA889A85FB68FA88DA8571
:102DFC00FB6800225A64FB68222283F84220FB689D
:102E0C001B69002B07D0FB681B68DA68FB681B6822
:102E1C0042F48072DA60FB681B685A69FB681B68B5
:102E2C0042F001025A61FB681B68DA68FB681B6898
:102E3C0042F02002DA60002318461437BD4680BCED
:102E4C00704780B495B000AF78607B681B680C331A
:102E5C007B637B6B53E8003F3B633B6B23F49073CA
:102E6C00FB647B681B680C33FA6C3A64FB63F96B8C
:102E7C003A6C41E80023BB63BB6B002BE5D17B684C
:102E8C001B6814333B623B6A53E8003FFB61FB69F0
:102E9C0023F00103BB647B681B681433BA6CFA62C1
:102EAC00BB62B96AFA6A41E800237B627B6A002B39
:102EBC00E5D17B681B6B012B19D17B681B680C332C
:102ECC00FB60FB6853E8003FBB60BB6823F010035A
:102EDC007B647B681B680C337A6CBA617B617969A3
:102EEC00BA6941E800233B613B69002BE5D17B6863
:102EFC00202283F842207B6800221A6300BF5437DB
:102F0C00BD4680BC704780B584B000AF78607B68EC
:102F1C005B6AFB60FB680022DA85FB680022DA84BE
:102F2C00F868FFF7E8FE00BF1037BD4680BD80B4DF
:102F3C0085B000AF78607B6893F84130DBB2212B11
:102F4C003ED17B689B68B3F5805F14D17B681B69AD
:102F5C00002B10D17B681B6AFB60FB681B881A4630
:102F6C007B681B68C2F308025A607B681B6A9A1C58
:102F7C007B681A6208E07B681B6A591C7A681162CC
:102F8C001A787B681B685A607B68DB8C9BB2013BB0
:102F9C009BB27A681946D184002B0FD17B681B68D1
:102FAC00DA687B681B6822F08002DA607B681B6839
:102FBC00DA687B681B6842F04002DA60002300E0AC
:102FCC00022318461437BD4680BC704780B582B0CA
:102FDC0000AF78607B681B68DA687B681B6822F03E
:102FEC004002DA607B68202283F841207868FFF782
:102FFC0079FE002318460837BD4680BD80B58CB0DD
:10300C0000AF78607B6893F84230DBB2222B40F043
:10301C00AE807B689B68B3F5805F17D17B681B69BA
:10302C00002B13D10023FB627B689B6ABB627B681D
:10303C001B685B689BB2C3F308039AB2BB6A1A8025
:10304C007B689B6A9A1C7B689A6226E07B689B6A09
:10305C00FB620023BB627B689B68B3F5805F07D083
:10306C007B689B68002B0AD17B681B69002B06D1FF
:10307C007B681B685B68DAB2FB6A1A7008E07B68D5
:10308C001B685B68DBB203F07F03DAB2FB6A1A7071
:10309C007B689B6A5A1C7B689A627B68DB8D9BB24F
:1030AC00013B9BB27A681946D185002B5DD17B68B8
:1030BC001B68DA687B681B6822F02002DA607B6888
:1030CC001B68DA687B681B6822F48072DA607B68A4
:1030DC001B685A697B681B6822F001025A617B6885
:1030EC00202283F842207B6800225A637B681B6B8A
:1030FC00012B35D17B6800221A637B681B680C336B
:10310C007B617B6953E8003F3B613B6923F0100313
:10311C007B627B681B680C337A6A3A62FB61F969E3
:10312C003A6A41E80023BB61BB69002BE5D17B689F
:10313C001B681B6803F01003102B0AD10023FB60E3
:10314C007B681B681B68FB607B681B685B68FB60AB
:10315C00FB687B689B8D19467868FFF7D5FD02E00C
:10316C00786800F0D9F9002302E0002300E0022384
:10317C0018463037BD4680BD80B584B000AF78604E
:10318C007B681B681B6923F440517B68DA687B6899
:10319C001B680A431A617B689A687B681B691A432F
:1031AC007B685B691343BB607B681B68DB6823F43B
:1031BC00B05323F00C037A681268B9680B43D360E0
:1031CC007B681B685B6923F440717B689A697B6838
:1031DC001B680A435A617B681B682C4A934203D1D3
:1031EC00FEF77AFEF86002E0FEF762FEF860FA681D
:1031FC0013469B0013449A001A447B685B689B003F
:10320C00B2FBF3F3224AA2FB03235B091901FA6810
:10321C0013469B0013449A001A447B685B689B001E
:10322C00B2FBF3F21A4BA3FB02035B09642000FB15
:10323C0003F3D31A1B013233154AA2FB03235B0998
:10324C0003F0F0031944FA6813469B0013449A00E8
:10325C001A447B685B689B00B2FBF3F20C4BA3FB3C
:10326C0002035B09642000FB03F3D31A1B01323306
:10327C00074AA2FB03235B0903F00F027B681B6860
:10328C000A449A6000BF1037BD4680BD003801402B
:10329C001F85EB5180B584B000AF7860FEF7FEFD62
:1032AC000346094AA2FB03235A0D7B6802FB03F376
:1032BC00FB6000BFFB685A1EFA60002BFAD100BFFE
:1032CC0000BF1037BD4680BD83DE1B4380B584B084
:1032DC0000AF3B4600221A605A609A60DA60042301
:1032EC003B6001237B600023BB600323FB603B46F8
:1032FC0019460348FEF752F800BF1037BD4680BD93
:10330C00000C014080B584B000AF3B4600221A602F
:10331C005A609A60DA6004233B6000237B600123CF
:10332C00BB603B4619460348FEF738F800BF103720
:10333C00BD4680BD000C014080B500AFFFF7C6FF55
:10334C00002204210748FEF7C4F91420FDF728FBDE
:10335C00012204210348FEF7BCF91E20FFF79AFF57
:10336C0000BF80BD000C014080B582B000AF0023CF
:10337C00FB71FFF7C7FF05E0FB790133FB710120FF
:10338C00FFF788FF04211548FEF78CF90346002B44
:10339C0002D0FB79632BEFD9FB79632B01D9012385
:1033AC0018E00023FB7105E0FB790133FB71012070
:1033BC00FFF770FF04210948FEF774F90346002B50
:1033CC0002D1FB79632BEFD9FB79632B01D9012354
:1033DC0000E0002318460837BD4680BD000C0140B4
:1033EC0080B582B000AF0023FB7105E0FB7901339F
:1033FC00FB710120FFF74EFF04211648FEF752F92E
:10340C000346002B02D0FB79632BEFD90023FB7111
:10341C0005E0FB790133FB710120FFF73BFF042131
:10342C000C48FEF73FF90346002B02D1FB79632BC6
:10343C00EFD92820FFF72EFF04210648FEF732F9BA
:10344C000346002B01D0012300E000231846083767
:10345C00BD4680BD000C014080B582B000AF00239A
:10346C00BB710023FB710CE0BB795B00BB71FFF7F8
:10347C00B7FF03461A46BB791343BB71FB79013383
:10348C00FB71FB79072BEFD9BB7918460837BD4682
:10349C0080BD80B500AFFFF74FFFFFF765FF034618
:1034AC00184680BD90B585B000AF7860FFF744FF3B
:1034BC00FFF75AFF0346002B27D10023FB730CE0C8
:1034CC00FC7BFFF7C9FF03461A4604F110033B448B
:1034DC0003F8082CFB7B0133FB73FB7B042BEFD92C
:1034EC003B7A1A467B7A1344BA7A1344FA7A134419
:1034FC003A7B93420BD13A7A7B681A707B68013322
:10350C007B60BA7A7B681A7001E0012300E000232B
:10351C0018461437BD4690BD80B582B000AF7860B8
:10352C007B68274A934247D1264B1B78184600F0FC
:10353C0081F8254B1B881BB2002B38DB224B1B88D8
:10354C0003F48043002B11D01E4B1B780A2B03D0A5
:10355C001D4B00221A802AE01B4B1B886FEA434349
:10356C006FEA53439AB2184B1A8020E0154B1B7824
:10357C000D2B07D1144B1B8843F480439AB2124B8A
:10358C001A8014E0104B1B88C3F30D030D4A1178FD
:10359C000E4AD1540C4B1B8801339AB20A4B1A8039
:1035AC00094B1B88C72B02D9074B00221A8001221A
:1035BC0004490348FFF7DEF800BF0837BD4680BD5D
:1035CC00D8000020EE010020EC0100202401002096
:1035DC00014B1868704700BF0C00002070B5002626
:1035EC000C4D0D4C641BA410A64209D101F04CF9F2
:1035FC0000260A4D0A4C641BA410A64205D170BDCE
:10360C0055F8043B98470136EEE755F8043B9847CC
:10361C000136F2E7904900089049000890490008EB
:10362C009449000803460244934200D1704703F8C2
:10363C00011BF9E738B5084B05461C6824B1A36992
:10364C0013B9204600F006FA29462046A268BDE8C8
:10365C00384000F0DBBE00BF0C0000202DE9F74322
:10366C001D465D4B04461F680E46904627B1BB694C
:10367C0013B9384600F0EEF9584B9C4267D17C6880
:10368C00B8F1020F06D0B8F1010F00F29F80002DA7
:10369C00C0F29C80636EDB0705D4A389980502D425
:1036AC00A06D00F075FA2146384600F03FF9616BC9
:1036BC0041B104F14403994202D0384600F0D8FAE3
:1036CC00002363630023A3616360A389190603D5F8
:1036DC003846216900F0CCFAA389B8F1020F23F423
:1036EC004A6323F00303A3816CD001AB6A462146E5
:1036FC00384600F04FFAA3891843A081002D30D131
:10370C00009D284600F0ACFA0646002855D1DDF89D
:10371C000090A9454AD14FF0FF350022A26004F178
:10372C004702226022610122B4F90C306261626EA0
:10373C0043F00203D207A38105D413F4007F02D116
:10374C00A06D00F026FA284603B0BDE8F083244BA8
:10375C009C4201D1BC6893E7224B9C4208BFFC6899
:10376C008EE7002ECDD0BB6913B9384600F072F944
:10377C00B8F1010F08BFA389C4E9046504BF43F085
:10378C000103A381A289266012F008031CD0D30781
:10379C0041BF00236D42A360A56158BFA560656E53
:1037AC0015F0010515D112F4007FC8E7484600F06A
:1037BC0057FA06460028AED04D46A38943F0800345
:1037CC00A381D0E70025A8E7A360E8E74FF0FF3519
:1037DC00B9E70025B7E700BF0C0000201C49000822
:1037EC003C490008FC4800080EB46FF0004100B5DD
:1037FC009CB01DAB029006900791049108480949B2
:10380C0053F8042B0591006802A9019300F068FBA2
:10381C000022029B1A701CB05DF804EB03B07047D9
:10382C000C0000200802FFFF8A89F8B50546100736
:10383C000C4657D44B68002B04DC0B6C002B01DCC2
:10384C000020F8BDE66A002EFAD0002312F4805254
:10385C002F682B6032D0606DA3895A0705D5636839
:10386C00C01A636B0BB1236CC01A00230246E66AC4
:10387C002846216AB047431CA38906D129681D2913
:10388C002CD8294ACA40D60728D500226260226962
:10389C00D904226004D5421C01D12B6803B96065A0
:1038AC00616B2F600029CBD004F14403994202D004
:1038BC00284600F0DDF900206063C2E7216A01238D
:1038CC002846B047411CC7D12B68002BC4D01D2BF8
:1038DC0001D0162B01D12F60B2E7A38943F040032E
:1038EC00A381AEE70F69002FAAD0930718BF00235E
:1038FC000E6808BF4B69F61B0F608B60002E9FDDB6
:10390C0033463A462846216AD4F828C0E0470028B6
:10391C0006DCA3894FF0FF3043F04003A38190E70E
:10392C000744361AEAE700BF0100402038B50B699E
:10393C0005460C4613B90025284638BD18B18369D5
:10394C000BB900F087F8144B9C421BD16C68B4F98E
:10395C000C30002BEFD0626ED00704D4990502D442
:10396C00A06D00F015F928462146FFF75DFF636E48
:10397C000546DA07E0D4A3899B05DDD4A06D00F0E1
:10398C0008F9D9E7054B9C4201D1AC68DFE7044B41
:10399C009C4208BFEC68DAE71C4900083C49000867
:1039AC00FC480008002310B50446C0E90033C0E908
:1039BC000433836081814366C28183611946082286
:1039CC005C30FFF72FFE054B24626362044BA3624D
:1039DC00044BE362044B236310BD00BFC9440008D1
:1039EC00EB4400082345000847450008014900F056
:1039FC00AFB800BF39390008682270B54D1E554369
:103A0C000E4605F1740100F09BF9044640B100210B
:103A1C00C0E900160C30A06005F16802FFF702FE49
:103A2C00204670BD014800F0B3B800BFF001002083
:103A3C00014800F0AEB800BFF0010020014800F0D2
:103A4C00A7B800BFF1010020014800F0A2B800BFE8
:103A5C00F101002010B50446FFF7F0FFA3691BB17C
:103A6C00BDE81040FFF7F0BFC4E912332365134BD8
:103A7C00134A1B68A262A34208BF0123204608BF59
:103A8C00A36100F01FF86060204600F01BF8A060F6
:103A9C00204600F017F800220421E0606068FFF770
:103AAC0081FF01220921A068FFF77CFF022212216D
:103ABC00E068FFF777FF0123A361D1E7F84800081E
:103ACC00F9390008F8B50746FFF7ACFF1E4B1E6826
:103ADC00B36913B93046FFF7BDFF4836D6E9013458
:103AEC00013B03D533680BB33668F7E7B4F90C50D8
:103AFC00D5B9164B04F15800E360656600F047F841
:103B0C00FFF796FF08222946C4E90155C4E904557C
:103B1C002560A56104F15C00FFF784FDC4E90D5537
:103B2C00C4E912552046F8BD6834D9E7042138465B
:103B3C00FFF762FF044630600028D5D1FFF778FF0D
:103B4C000C233B60EEE700BFF84800080100FFFFC4
:103B5C002DE9F84306468846002700F14804D4E9CD
:103B6C000195B9F1010905D52468002CF7D1384627
:103B7C00BDE8F883AB89012B07D9B5F90E300133B9
:103B8C0003D029463046C04707436835E9E77047FC
:103B9C007047704770B50E46B1F90E1014460029E7
:103BAC001D4696B008DA0022B6F90C302A601A06C7
:103BBC0010D44FF480630EE06A4600F0A5FD002897
:103BCC00F1DB019A02F47042A2F500535A425A41B9
:103BDC002A60EEE740230020236016B070BD000081
:103BEC008B8973B59D0706460C4607D504F1470330
:103BFC00236023610123636102B070BD6A4601AB8F
:103C0C00FFF7C8FF00990546304600F099F848B90F
:103C1C00B4F90C309A05EFD423F0030343F00203FC
:103C2C00A381E3E70D4BB362A389206043F08003CB
:103C3C00A381009B20616361019B5BB13046B4F9A9
:103C4C000E1000F073FD28B1A38923F0030343F099
:103C5C000103A381A0890543A581CDE7F9390008AB
:103C6C00024B0146186800F06BB800BF0C00002036
:103C7C0038B50546002940D051F8043C0C1F002BE8
:103C8C00B8BFE41800F0AAFD1C4A136833B963608E
:103C9C0014602846BDE8384000F0A6BDA34208D900
:103CAC00206821188B4201BF19685B6809182160D4
:103CBC00EDE71A465B680BB1A342FAD911685018AC
:103CCC00A0420BD120680144501883421160E0D10E
:103CDC0018685B68014411605360DAE702D90C2361
:103CEC002B60D6E7206821188B4201BF19685B68EE
:103CFC000918216063605460CBE738BDF4010020E3
:103D0C0070B50E4E0C463168054611B900F0C6FB75
:103D1C0030602146284600F0C1FB431C0AD0C41C6D
:103D2C0024F00304A04207D0211A284600F0B6FB69
:103D3C00013001D14FF0FF34204670BDF801002056
:103D4C002DE9F041CD1C25F0030508350C2D38BFAD
:103D5C000C25002D074601DBA94205D90C230026B2
:103D6C003B603046BDE8F0812E4E00F037FD3368E5
:103D7C001C4634BB29463846FFF7C2FF431C044699
:103D8C004DD134682646002E40D123683146384642
:103D9C0004EB030800F082FB80453AD1216803351F
:103DAC006D1A25F0030508350C2D38BF0C25384647
:103DBC002946FFF7A5FF01302BD023682B44236045
:103DCC000EE02268521B1ED40B2A16D96119A3428D
:103DDC00256018BF5960636808BF316062514B6041
:103DEC00384604F10B0600F0FFFC26F00706231DF5
:103DFC00F21AB6D09B1BA350B3E76268A3420CBF68
:103E0C0032605A60ECE723466468B2E73446766861
:103E1C00B9E70C2338463B6000F0E6FCA1E72560CF
:103E2C00DEE700BFF40100202DE9F0478E688246E2
:103E3C009E420C4690461F4638D88A8912F4906FE1
:103E4C0032D0256809690133A5EB010965694B443A
:103E5C0005EB450505EBD5756D109D4238BF1D462C
:103E6C00530531D52946FFF76BFF064650B90C2395
:103E7C004FF0FF30CAF80030A38943F04003A38110
:103E8C00BDE8F0874A46216900F080FCA38923F441
:103E9C00906343F08003A38126614E4426603E4626
:103EAC006561A5EB0905A560BE4200D93E463246C8
:103EBC004146206800F078FCA36800209B1BA3609F
:103ECC00236833442360DBE72A4600F093FC064664
:103EDC000028E1D150462169FFF7CAFEC7E7000070
:103EEC002DE9F04F98468B8907461B060D46144664
:103EFC009DB00ED50B6963B94021FFF721FF2860F7
:103F0C00286120B90C233B604FF0FF30D1E04023F7
:103F1C006B610023099320238DF8293030234FF057
:103F2C000109CDF80C80DFF8A4818DF82A302346E6
:103F3C009A4613F8012B0AB1252AF9D1BAEB040BD6
:103F4C000BD05B46224629463846FFF76DFF013001
:103F5C0000F0AA80099A5A4409929AF80030002B72
:103F6C0000F0A28000234FF0FF32CDE905230AF1C7
:103F7C00010A049307938DF853301A935446052283
:103F8C0014F8011B514800F0F3FB049AD8B9D00681
:103F9C0044BF20238DF85330110744BF2B238DF8D9
:103FAC0053309AF800302A2B15D0544600204FF08D
:103FBC000A0C079A214611F8013B303B092B4ED9CC
:103FCC00B0B1079214E0A0EB080309FA03F3134312
:103FDC00A2460493D2E7039B191D1B680391002B87
:103FEC00BBBF5B4242F0020207930793B8BF049237
:103FFC0023782E2B0CD163782A2B35D1039B0234DA
:10400C001A1D1B680392002BB8BF4FF0FF330593AA
:10401C00DFF8BCA003225046217800F0A9FB40B188
:10402C004023A0EB0A0003FA00F0049B0134034385
:10403C00049314F8011B062226488DF8281000F072
:10404C0097FB002838D0244B1BBB039B073323F072
:10405C00070308330393099B3344099367E70C4622
:10406C0001200CFB0232A5E700234FF00A0C194685
:10407C0001340593204610F8012B303A092A03D954
:10408C00002BC5D00591C3E7044601230CFB01218D
:10409C00F0E703AB00932A463846104B04A9AFF364
:1040AC000080421C0646D6D1AB895B063FF52CAF8F
:1040BC0009981DB0BDE8F08F03AB00932A46384633
:1040CC00064B04A900F07CF8EBE700BF5C49000844
:1040DC00624900086649000800000000353E0008EF
:1040EC002DE9F047164699468A680B6907469342B4
:1040FC00B8BF1346336091F843200C46DDF820809E
:10410C000AB1013333602368990642BF3368023326
:10411C003360256815F0060506D104F1190AE36829
:10412C0032689B1AAB4228DC94F84320131E226899
:10413C0018BF012392062DD44946384604F1430298
:10414C00C047013020D02368E56803F00603042B38
:10415C0018BF002532684FF00006A36808BFAD1ADF
:10416C00226908BF25EAE5759342C4BF9B1AED1876
:10417C001A34B5421AD1002008E0012352464946B0
:10418C003846C047013003D14FF0FF30BDE8F0870F
:10419C000135C4E73020E11881F843005A1C94F82B
:1041AC0045102244023382F84310C5E7012322460E
:1041BC0049463846C0470130E6D00136D9E7000001
:1041CC002DE9FF470F7E9146782F80460C469A4684
:1041DC000C9D01F1430207D8622F0AD8002F00F082
:1041EC00D980582F00F0A48004F1420584F8427065
:1041FC003AE0A7F16303152BF6D801A151F823F08F
:10420C006542000879420008F5410008F5410008B4
:10421C00F5410008F541000879420008F541000815
:10422C00F5410008F5410008F541000887430008F6
:10423C00A942000869430008F5410008F54100084F
:10424C00A9430008F5410008A9420008F5410008FF
:10425C00F5410008714300082B681A1D1B682A6081
:10426C0004F1420584F842300123A4E02068296857
:10427C00060601F104030AD50E682B60002E03DA42
:10428C002D23764284F843300A235E4819E00E68E9
:10429C0010F0400F2B6018BF36B2EFE72B68206888
:1042AC00191D2960010601D51E6802E04606FBD5E2
:1042BC001E886F2F0CBF08230A235248002184F854
:1042CC0043106568002DA8BF2168A560A4BF21F02C
:1042DC00040121600EB9002D4DD01546B6FBF3F14B
:1042EC0003FB1167C75D05F8017D3746BB420E46DF
:1042FC00F4D9082B0BD12368DE0708D52369616834
:10430C009942DEBF302305F8013C05F1FF35521B05
:10431C0022614B4621464046CDF800A003AAFFF788
:10432C00DFFE01304CD14FF0FF3004B0BDE8F08718
:10433C00344881F845702968236851F8046B29606A
:10434C001D0614D5DF0744BF43F0200323601EB9BC
:10435C00236823F0200323601023AFE7236843F086
:10436C00200323607823284884F84530E3E7590676
:10437C0048BFB6B2E6E71546BBE72B682668181DA2
:10438C006169286035061B6801D5196002E070066A
:10439C00FBD51980002315462361BAE72B68002151
:1043AC001A1D2A601D686268284600F0E1F908B100
:1043BC00401B606063682361002384F84330A8E7E6
:1043CC002A46494640462369D0470130ABD0236882
:1043DC009B0713D4E068039B9842B8BF1846A4E728
:1043EC000123324649464046D04701309BD0013527
:1043FC00E36803995B1AAB42F2DCEBE7002504F1AE
:10440C001906F5E76D4900087E49000870B50D46A0
:10441C001446064618B183690BB9FFF71BFB1C4BFE
:10442C009C4224D17468636ED80705D4A38999057E
:10443C0002D4A06DFFF7ACFBA368013B002BA3607B
:10444C0005DAA26993421CDBEBB20A2B19D0236864
:10445C005A1C22601D70EDB2636EDA0705D4A38975
:10446C009B0502D4A06DFFF794FB284670BD094B49
:10447C009C4201D1B468D6E7074B9C4208BFF46854
:10448C00D1E729462246304600F05CF80546E3E7C2
:10449C001C4900083C490008FC48000838B50023BA
:1044AC00054D044608462B60FCF738F9431C02D135
:1044BC002B6803B1236038BDFC01002010B50C46FD
:1044CC00B1F90E1000F0C6F90028ABBF636DA389DB
:1044DC001B1823F48053ACBF6365A38110BD2DE979
:1044EC00F0411F468B890546DB050C46164605D563
:1044FC0002230022B1F90E1000F028F9A3893246EC
:10450C0023F48053A38128463B46B4F90E10BDE832
:10451C00F04100F069B810B50C46B1F90E1000F07E
:10452C0015F9431CA38915BF606523F4805343F42C
:10453C008053A38118BFA38110BDB1F90E1000F0F8
:10454C00D3B80000F8B50E461446054618B1836979
:10455C000BB9FFF77FFA214B9C422BD16C68A369F6
:10456C00A360A3891A072FD523696BB3236920682D
:10457C00F6B2C01A63693746834204DC21462846EA
:10458C00FFF7D4F930BBA3680130013BA36023686B
:10459C005A1C22601E706369834204D0A389DB0716
:1045AC0006D50A2E04D121462846FFF7BFF988B953
:1045BC003846F8BD0A4B9C4201D1AC68CFE7094B99
:1045CC009C4208BFEC68CAE72146284600F01EF85A
:1045DC000028CBD04FF0FF37EAE700BF1C4900089A
:1045EC003C490008FC48000838B50446084611460A
:1045FC000022054D2A601A46FBF758FF431C02D1D6
:10460C002B6803B1236038BDFC010020324B70B520
:10461C001D6806460C4625B1AB6913B92846FFF751
:10462C0019FA2E4B9C420FD16C68A389B4F90C205B
:10463C0019072CD4DD0611D40923336042F0400352
:10464C004FF0FF30A3813EE0254B9C4201D1AC687A
:10465C00EBE7244B9C4208BFEC68E6E7580712D501
:10466C00616B41B104F14403994202D03046FFF72B
:10467C00FFFA00236363A38923F02403A38100239F
:10468C00636023692360A38943F00803A381236932
:10469C004BB9A38903F42073B3F5007F03D02146F3
:1046AC003046FFF79DFAA089B4F90C2010F00103F5
:1046BC000AD00023A36063695B42A361236943B9F9
:1046CC0010F08000BAD170BD810758BF6369A36038
:1046DC00F4E70020F7E700BF0C0000201C4900089D
:1046EC003C490008FC48000838B50023054D044639
:1046FC0008462B60FBF706FF431C02D12B6803B165
:10470C00236038BDFC01002038B50023064D04465B
:10471C00084611462B60FBF745FF431C02D12B6862
:10472C0003B1236038BD00BFFC01002038B5002365
:10473C00054D044608462B60FBF7A2FE431C02D134
:10474C002B6803B1236038BDFC01002038B504464A
:10475C00084611460022054D2A601A46FBF7E9FE71
:10476C00431C02D12B6803B1236038BDFC0100202F
:10477C00034610B5C9B202449342184601D1002039
:10478C0003E0047801338C42F6D110BD0A44914207
:10479C0000F1FF3300D1704710B511F8014B914275
:1047AC0003F8014FF9D110BD884210B501EB02049A
:1047BC0002D98442234607D8431EA14208D011F8DF
:1047CC00012B03F8012FF8E7014602448A4200D17D
:1047DC0010BD13F8014D02F8014DF7E70148FFF742
:1047EC00D7B900BFEF0100200148FFF7D2B900BFD5
:1047FC00EF0100202DE9F041804614460E4621B908
:10480C001146BDE8F041FFF79BBA2AB9FFF730FA21
:10481C0025462846BDE8F08100F02EF88442074674
:10482C0002D8B4EB500F12D821464046FFF788FA55
:10483C0005460028EDD0BC422246314628BF3A46F8
:10484C00FFF7A4FF31464046FFF712FAE1E7354681
:10485C00DFE7000038B50446084611460022054D36
:10486C002A601A46FBF776FE431C02D12B6803B173
:10487C00236038BDFC01002051F8043C181F002BAC
:10488C00BCBF0B58C0187047F8B500BFF8BC08BCCB
:10489C009E467047F8B500BFF8BC08BC9E467047F2
:1048AC00256425252C202564430D0A0000000000FA
:1048BC0000000000010203040607080900000000C4
:1048CC000102030402030405060708090A0B0C0D78
:1048DC000E0F101001020000020304050607080960
:1048EC000A0B0C0D0E0F101001020000100000201E
:1048FC0000000000000000000000000000000000AC
:10490C00000000000000000000000000000000009B
:10491C00000000000000000000000000000000008B
:10492C00000000000000000000000000000000007B
:10493C00000000000000000000000000000000006B
:10494C00000000000000000000000000000000005B
:10495C00232D302B2000686C4C006566674546475C
:10496C0000303132333435363738394142434445DF
:10497C00460030313233343536373839616263644E
:04498C00656600005C
:0449900031010008E9
:044994000D01000809
:1049980000127A0010000000010000001000002042
:1049A800000000001C4900083C490008FC480008B9
:1049B80000000000000000000000000000000000EF
:1049C80000000000000000000000000000000000DF
:1049D80000000000000000000000000000000000CF
:1049E80000000000000000000000000000000000BF
:1049F80000000000000000000000000000000000AF
:040000050800089D4A
:00000001FF
