:020000040800F2
:10000000005000209D090008490700084F0700081C
:10001000550700085B0700086107000800000000A2
:10002000000000000000000000000000670700085A
:1000300073070008000000007F0700088B07000816
:10004000E5090008E5090008E5090008E5090008D8
:10005000E5090008E5090008E5090008E5090008C8
:10006000E5090008E5090008E5090008E5090008B8
:10007000E5090008E5090008E5090008E5090008A8
:10008000E5090008E5090008E5090008E509000898
:10009000E5090008E5090008E5090008E509000888
:1000A000E5090008E5090008E5090008E509000878
:1000B000E5090008E509000899070008E5090008B6
:1000C000E5090008E5090008E5090008E509000858
:1000D000E5090008E5090008E5090008E509000848
:1000E000AD070008E5090008E50900080000000068
:1000F0000000000000000000000000000000000000
:0C01000000000000000000005FF808F1A3
:10010C0010B5054C237833B9044B13B10448AFF345
:10011C0000800123237010BD14000020000000009B
:10012C007430000808B5034B1BB103490348AFF307
:10013C00008008BD0000000018000020743000088A
:10014C0080B584B000AF3B1D00221A605A609A60E3
:10015C00214B224A1A60204B4FF480729A601E4B3E
:10016C0000221A731C4B01221A751B4B01229A6137
:10017C00194B4FF46022DA61174B00225A60164B70
:10018C0002221A61144800F08BFC0346002B01D0AC
:10019C0000F09CFA00237B600123BB600023FB6012
:1001AC003B1D19460C4800F03FFF0346002B01D0C5
:1001BC0000F08CFA01237B600223BB603B1D1946C7
:1001CC00054800F031FF0346002B01D000F07EFA09
:1001DC0000BF1037BD4680BD300000200024014018
:1001EC0080B588B000AF786007F1100300221A6068
:1001FC005A609A60DA607B681B68144A934221D17A
:10020C00134B9B69124A43F400739361104B9B6927
:10021C0003F40073FB60FB680D4B9B690C4A43F0C5
:10022C00040393610A4B9B6903F00403BB60BB6836
:10023C0003233B6103237B6107F110031946054837
:10024C0001F0A0F900BF2037BD4680BD002401405D
:10025C00001002400008014080B588B000AF07F1E3
:10026C00100300221A605A609A60DA60284B9B696E
:10027C00274A43F020039361254B9B6903F020032D
:10028C00FB60FB68224B9B69214A43F0040393619A
:10029C001F4B9B6903F00403BB60BB681C4B9B6941
:1002AC001B4A43F008039361194B9B6903F0080345
:1002BC007B607B6800224FF48041164801F0E6FA1F
:1002CC004FF400533B61144B7B610123BB6107F17D
:1002DC00100319460F4801F055F94FF480433B6168
:1002EC0001237B610023BB610223FB6107F1100337
:1002FC001946084801F046F900220021282001F097
:10030C000AF9282001F023F900BF2037BD4680BD33
:10031C0000100240000C01400000111080B58CB0A0
:10032C0000AF002387F82F3007F1280300221A6052
:10033C009A8000233B603B1D24220021184602F0CA
:10034C008BFE002387F82F3020E01B4800F080FC48
:10035C004FF6FF71184800F055FD174800F05CFF90
:10036C00034603F40073002B0BD0134800F050FE2F
:10037C00024697F82F3012B25B0030333B4423F81F
:10038C00082C97F82F30013387F82F3097F82F303F
:10039C00012BDAD9084800F009FDB7F928309AB2D8
:1003AC00064B1A80B7F92A309AB2054B1A8000BF57
:1003BC003037BD4680BD00BF3000002064000020F7
:1003CC006600002080B400AF184B1A88184B1B88AD
:1003DC009A4213D9174B1B8801339AB2154B1A80CA
:1003EC00144B1B88042B1CD9124B05221A80124B60
:1003FC0000221A80114B01221A7012E00E4B1B883E
:10040C0001339AB20C4B1A800B4B1B88042B08D966
:10041C00094B05221A80074B00221A80074B002239
:10042C001A7000BFBD4680BC704700BF640000203E
:10043C00000000206A0000206C00002062000020F8
:10044C0080B400AF084B1A88084B1B889A4203D221
:10045C00074B01221A7002E0054B00221A7000BFF4
:10046C00BD4680BC704700BF660000200200002023
:10047C006100002080B500AF314B1B78032B3AD0C4
:10048C00032B5BDC012B02D0022B1DD056E02D4B35
:10049C001B78012B4FD12C4B1B78002B06D0284BF3
:1004AC001B780133DAB2264B1A7044E0274B1B78C9
:1004BC00002B40D0254B00221A70214B1B780133A6
:1004CC00DAB21F4B1A7036E04FF6FF73092220493F
:1004DC00204802F0C9FB00224FF480411E4801F075
:1004EC00D5F91E4B00221A80154B1B780133DAB25A
:1004FC00134B1A7022E0194B1B8801339AB2174B1D
:10050C001A80164B1B8841F28732934215D94FF64D
:10051C00FF730A2212490F4802F0A6FB01224FF486
:10052C0080410D4801F0B2F9084B00221A70044BBF
:10053C0001221A7001E000BF00E000BF00BF80BDC7
:10054C0004000020620000206100002060000020F8
:10055C008C300008B8000020000C01406E00002018
:10056C009830000880B500AF00F038FA00F028F899
:10057C00FFF772FEFFF7E4FD00F020F900F092F9AE
:10058C0001224FF480410B4801F080F90A4801F038
:10059C0079FF0A4B1B78002BFBD0084B00221A70FA
:1005AC00FFF7BCFEFFF70EFFFFF74AFFFFF762FFF6
:1005BC00EFE700BF000C0140700000206800002035
:1005CC0080B594B000AF07F128032822002118460B
:1005DC0002F042FD07F1140300221A605A609A607F
:1005EC00DA601A613B1D00221A605A609A60DA6068
:1005FC000123BB624FF48033FB6200233B63012376
:10060C00BB6302237B644FF48033BB644FF4E01371
:10061C00FB6407F12803184601F068F90346002B28
:10062C0001D000F053F80F237B610223BB61002340
:10063C00FB614FF480633B6200237B6207F1140380
:10064C000221184601F0D4FB0346002B01D000F028
:10065C003DF802237B604FF40043FB603B1D1846C2
:10066C0001F054FD0346002B01D000F02FF800BF21
:10067C005037BD4680BD000080B483B000AF034648
:10068C00FB80FB88B3F5005F02D1044B01221A708A
:10069C0000BF0C37BD4680BC704700BF6000002017
:1006AC0080B483B000AF78607B681A68054B1B6818
:1006BC009A4202D1044B01221A7000BF0C37BD467E
:1006CC0080BC7047700000206800002080B400AF30
:1006DC0072B600BFFEE7000080B485B000AF154BCA
:1006EC009B69144A43F001039361124B9B6903F01D
:1006FC000103BB60BB680F4BDB690E4A43F08053B0
:10070C00D3610C4BDB6903F080537B607B680A4B35
:10071C005B68FB60FB6823F0E063FB60FB6843F005
:10072C000073FB60044AFB68536000BF1437BD467E
:10073C0080BC7047001002400000014080B400AF44
:10074C00FEE780B400AFFEE780B400AFFEE780B4F4
:10075C0000AFFEE780B400AFFEE780B400AF00BF8F
:10076C00BD4680BC704780B400AF00BFBD4680BCA6
:10077C00704780B400AF00BFBD4680BC704780B5E9
:10078C0000AF00F071F900BF80BD000080B500AF74
:10079C00024801F0C9FE00BF80BD00BF7000002000
:1007AC0080B500AF4FF4005001F088F800BF80BD59
:1007BC0080B400AF00BFBD4680BC704780B586B02A
:1007CC0000AF07F1080300221A605A609A60DA60E1
:1007DC003B4600221A605A601D4B1E4A1A601C4B85
:1007EC0047225A601A4B00229A60194B40F2E732AA
:1007FC00DA60174B00221A61154B80229A6114485B
:10080C0001F0F0FD0346002B01D0FFF75FFF4FF422
:10081C008053BB6007F1080319460D4801F074FFC3
:10082C000346002B01D0FFF751FF20233B60002330
:10083C007B603B461946064802F056F90346002BEE
:10084C0001D0FFF743FF00BF1837BD4680BD00BF86
:10085C00700000200008004080B584B000AF7860C4
:10086C007B681B680D4A934213D10D4BDB690C4A14
:10087C0043F00403D3610A4BDB6903F00403FB6010
:10088C00FB68002200211E2000F045FE1E2000F017
:10089C005EFE00BF1037BD4680BD00BF00080040A3
:1008AC000010024080B500AF114B124A1A60104B79
:1008BC004FF4E1325A600E4B00229A600C4B00222E
:1008CC00DA600B4B00221A61094B0C225A61084B5F
:1008DC0000229A61064B0022DA61054802F074F995
:1008EC000346002B01D0FFF7F1FE00BF80BD00BF17
:1008FC00B80000200038014080B588B000AF7860A7
:10090C0007F1100300221A605A609A60DA607B6863
:10091C001B681C4A934231D11B4B9B691A4A43F406
:10092C0080439361184B9B6903F48043FB60FB6825
:10093C00154B9B69144A43F004039361124B9B695A
:10094C0003F00403BB60BB684FF400733B610223EC
:10095C007B610323FB6107F1100319460B4800F080
:10096C0011FE4FF480633B6100237B610023BB616C
:10097C0007F110031946054800F004FE00BF2037AC
:10098C00BD4680BD00380140001002400008014007
:10099C00FFF70EFF0B480C490C4A002302E0D45819
:1009AC00C4500433C4188C42F9D3094A094C0023AF
:1009BC0001E013600432A242FBD302F029FBFFF7E3
:1009CC00D1FD70470000002014000020EC3000081E
:1009DC001400002004010020FEE7000080B500AFE9
:1009EC00084B1B68074A43F010031360032000F008
:1009FC0087FD0F2000F008F8FFF76EFE0023184665
:100A0C0080BD00BF0020024080B582B000AF78608E
:100A1C00124B1A68124B1B7819464FF47A73B3FBBE
:100A2C00F1F3B2FBF3F3184600F09FFD0346002BE5
:100A3C0001D001230EE07B680F2B0AD800227968C5
:100A4C004FF0FF3000F067FD064A7B68136000230F
:100A5C0000E0012318460837BD4680BD0800002081
:100A6C00100000200C00002080B400AF054B1B7858
:100A7C001A46054B1B681344034A136000BFBD465E
:100A8C0080BC7047100000200001002080B400AF33
:100A9C00024B1B681846BD4680BC70470001002005
:100AAC0080B586B000AF78600023FB7500233B61F6
:100ABC000023BB600023FB607B68002B01D101236A
:100ACC00BEE07B689B68002B7B689B6A002B09D17E
:100ADC007B680022DA627B68002283F82420786825
:100AEC00FFF77EFB786800F0FDFB0346FB757B6827
:100AFC009B6A03F01003002B40F09980FB7D002BC8
:100B0C0040F095807B689B6A23F4885323F00203A2
:100B1C0043F002027B689A627B685A687B68DB69E7
:100B2C001A437B681B7B5B001343BA681343BB609F
:100B3C007B689B68B3F5807F03D07B689B68012B37
:100B4C0002D14FF4807300E000233A6913433B61F8
:100B5C007B681B7D012B19D17B681B7B002B09D17A
:100B6C007B689B69013B5A033B69134343F4006365
:100B7C003B610BE07B689B6A43F020027B689A62C6
:100B8C007B68DB6A43F001027B68DA627B681B6876
:100B9C005B6823F469417B681B683A690A435A60B5
:100BAC007B681B689A68284B13407A681268B9688E
:100BBC000B4393607B689B68B3F5807F03D07B68A5
:100BCC009B68012B04D17B681B69013B1B05FB60F7
:100BDC007B681B68DB6A23F470017B681B68FA680E
:100BEC000A43DA627B681B689A68184B1340BA6830
:100BFC009A420BD17B680022DA627B689B6A23F0F5
:100C0C00030343F001027B689A6218E07B689B6ADD
:100C1C0023F0120343F010027B689A627B68DB6A54
:100C2C0043F001027B68DA620123FB7507E07B6805
:100C3C009B6A43F010027B689A620123FB75FB7D73
:100C4C0018461837BD4680BDFDF7E1FFFE0E1FFFAD
:100C5C0080B584B000AF78600023FB737B6893F899
:100C6C002430012B01D1022398E07B68012283F808
:100C7C002420786800F0DCFA0346FB73FB7B002B26
:100C8C0040F087807B689B6A23F4407323F0010358
:100C9C0043F480727B689A627B681B68414A93427A
:100CAC0005D1414B5B6803F47023002B15D17B6895
:100CBC009B6A23F480127B689A627B681B685B6872
:100CCC0003F48063002B26D07B689B6A23F440538B
:100CDC0043F480527B689A621DE07B689B6A43F404
:100CEC0080127B689A627B681B682F4A934204D0FF
:100CFC007B681B682B4A93420DD12B4B5B6803F42A
:100D0C008063002B07D07B689B6A23F4405343F429
:100D1C0080527B689A627B689B6A03F48053002B39
:100D2C0006D07B68DB6A23F006027B68DA6202E09D
:100D3C007B680022DA627B68002283F824207B68BF
:100D4C001B686FF002021A607B681B689B6803F4D7
:100D5C006023B3F5602F13D17B681B68114A934253
:100D6C0005D1114B5B6803F47023002B08D17B6811
:100D7C001B689A687B681B6842F4A0029A600CE0BE
:100D8C007B681B689A687B681B6842F480129A60C7
:100D9C0003E07B68002283F82420FB7B1846103785
:100DAC00BD4680BD002801400024014080B584B0C0
:100DBC0000AF78600023FB737B6893F82430012B21
:100DCC0001D102231AE07B68012283F82420786881
:100DDC0000F088FA0346FB73FB7B002B09D17B6880
:100DEC009B6A23F4885323F0010343F001027B68D0
:100DFC009A627B68002283F82420FB7B184610370C
:100E0C00BD4680BD90B587B000AF786039600023D7
:100E1C007B610023FB6000233B61FFF737FE7861A9
:100E2C007B681B689B6803F48073002B0BD07B687A
:100E3C009B6A43F020027B689A627B68002283F8ED
:100E4C0024200123D3E07B681B685B6803F4807368
:100E5C00002B31D17B681B68DB6A03F47003002B19
:100E6C002AD121E03B68B3F1FF3F1DD03B68002B3A
:100E7C0007D0FFF70BFE02467B69D31A3A689A42F9
:100E8C0012D27B681B681B6803F00203002B0BD18A
:100E9C007B689B6A43F004027B689A627B68002241
:100EAC0083F824200323A2E07B681B681B6803F0F3
:100EBC000203002BD6D070E04F4B1C68022001F0CF
:100ECC00DBF90346B4FBF3F27B681B6819694B4BE7
:100EDC000B40002B18D17B681B68D968484B0B4022
:100EEC00002B11D17B681B681969464B0B40002BFA
:100EFC0008D17B681B68D968434B0B40002B01D190
:100F0C00142320E029231EE07B681B6819693D4BE4
:100F1C000B40002B06D17B681B68D9683A4B0B4001
:100F2C00002B0DD07B681B681969384B0B40002BCC
:100F3C0008D17B681B68D968344B0B40002B01D15E
:100F4C00542300E0FC2302FB03F33B6121E03B68EC
:100F5C00B3F1FF3F1AD03B68002B07D0FFF796FD8B
:100F6C0002467B69D31A3A689A420FD2FB683A69F7
:100F7C009A420BD97B689B6A43F004027B689A62A5
:100F8C007B68002283F82420032330E0FB680133C4
:100F9C00FB60FB683A699A42D9D87B681B686FF092
:100FAC0012021A607B689B6A43F400727B689A6237
:100FBC007B681B689B6803F46023B3F5602F15D125
:100FCC007B681B7B002B11D17B689B6A23F480729E
:100FDC007B689A627B689B6A03F48053002B05D173
:100FEC007B689B6A43F001027B689A620023184677
:100FFC001C37BD4690BD00BF080000202449922438
:10100C0024499200922449129224490049922400C6
:10101C0080B483B000AF78607B681B68DB6C1846CB
:10102C000C37BD4680BC704780B485B000AF78608B
:10103C0039600023FB730023BB607B6893F824307A
:10104C00012B01D10223DCE07B68012283F82420F0
:10105C003B685B68062B1CD87B681B68596B3B682C
:10106C005A6813469B001344053B1F2202FA03F3F4
:10107C00DB4319403B6818683B685A6813469B0071
:10108C001344053B00FA03F27B681B680A435A635E
:10109C003CE03B685B680C2B1CD87B681B68196BAD
:1010AC003B685A6813469B001344233B1F2202FAE9
:1010BC0003F3DB4319403B6818683B685A681346D6
:1010CC009B001344233B00FA03F27B681B680A4322
:1010DC001A631BE07B681B68D96A3B685A68134625
:1010EC009B001344413B1F2202FA03F3DB431940DC
:1010FC003B6818683B685A6813469B001344413B95
:10110C0000FA03F27B681B680A43DA623B681B68CF
:10111C00092B1CD97B681B68D9683B681A68134675
:10112C005B0013441E3B072202FA03F3DB43194016
:10113C003B6898683B681A6813465B0013441E3B77
:10114C0000FA03F27B681B680A43DA6019E07B68DB
:10115C001B6819693B681A6813465B001344072225
:10116C0002FA03F3DB4319403B6898683B681A6842
:10117C0013465B00134400FA03F27B681B680A43B6
:10118C001A613B681B68102B03D03B681B68112B42
:10119C0032D17B681B681D4A934225D17B681B6842
:1011AC009B6803F40003002B26D17B681B689A68AC
:1011BC007B681B6842F400029A603B681B68102B2A
:1011CC001AD1134B1B68134AA2FB03239A0C134628
:1011DC009B0013445B00BB6002E0BB68013BBB603F
:1011EC00BB68002BF9D107E07B689B6A43F02002B7
:1011FC007B689A620123FB737B68002283F82420AE
:10120C00FB7B18461437BD4680BC70470024014058
:10121C000800002083DE1B4380B483B000AF7860ED
:10122C007B689B6A18460C37BD4680BC7047000033
:10123C0080B584B000AF78600023FB600023BB60F6
:10124C007B681B689B6803F00103012B40D07B6813
:10125C001B689A687B681B6842F001029A601F4BFE
:10126C001B681F4AA2FB03239B0CBB6002E0BB68FC
:10127C00013BBB60BB68002BF9D1FFF707FCF860A2
:10128C001FE0FFF703FC0246FB68D31A022B18D9A8
:10129C007B681B689B6803F00103012B11D07B68F2
:1012AC009B6A43F010027B689A627B68DB6A43F0AE
:1012BC0001027B68DA627B68002283F82420012318
:1012CC0007E07B681B689B6803F00103012BD8D1F6
:1012DC00002318461037BD4680BD00BF0800002013
:1012EC0083DE1B4380B584B000AF78600023FB60C5
:1012FC007B681B689B6803F00103012B2ED17B6874
:10130C001B689A687B681B6822F001029A60FFF7E1
:10131C00BDFBF8601BE0FFF7B9FB0246FB68D31A74
:10132C00022B14D97B681B689B6803F00103012B0B
:10133C000DD17B689B6A43F010027B689A627B68D4
:10134C00DB6A43F001027B68DA62012307E07B6809
:10135C001B689B6803F00103012BDCD000231846AB
:10136C001037BD4680BD000080B485B000AF7860FA
:10137C007B6803F00703FB600C4BDB68BB60BA684F
:10138C004FF6FF031340BB60FB681A02BB681343A4
:10139C0043F0BF6343F40033BB60044ABB68D360C3
:1013AC0000BF1437BD4680BC704700BF00ED00E0A5
:1013BC0080B400AF044BDB681B0A03F0070318462C
:1013CC00BD4680BC704700BF00ED00E080B483B028
:1013DC0000AF0346FB7197F90730002B0BDBFB7951
:1013EC0003F01F02064997F907305B09012000FA48
:1013FC0002F241F8232000BF0C37BD4680BC704779
:10140C0000E100E080B483B000AF03463960FB71AB
:10141C0097F90730002B0ADB3B68DAB20C4997F9D5
:10142C0007301201D2B20B4483F800230AE03B6868
:10143C00DAB20849FB7903F00F03043B1201D2B274
:10144C000B441A7600BF0C37BD4680BC704700BFFA
:10145C0000E100E000ED00E080B489B000AFF8607E
:10146C00B9607A60FB6803F00703FB61FB69C3F1A9
:10147C000703042B28BF0423BB61FB690433062B31
:10148C0002D9FB69033B00E000237B614FF0FF3284
:10149C00BB6902FA03F3DA43BB681A407B699A40D2
:1014AC004FF0FF317B6901FA03F3D9437B680B40A2
:1014BC00134318462437BD4680BC704780B582B0B4
:1014CC0000AF78607B68013BB3F1807F01D30123CF
:1014DC000FE00A4A7B68013B53600F214FF0FF304D
:1014EC00FFF790FF054B00229A60044B07221A600D
:1014FC00002318460837BD4680BD00BF10E000E051
:10150C0080B582B000AF78607868FFF72DFF00BF20
:10151C000837BD4680BD80B586B000AF0346B960C4
:10152C007A60FB7300237B61FFF742FF78617A6876
:10153C00B9687869FFF790FF024697F90F301146AA
:10154C001846FFF75FFF00BF1837BD4680BD80B55A
:10155C0082B000AF0346FB7197F907301846FFF7CE
:10156C0035FF00BF0837BD4680BD80B582B000AFE7
:10157C0078607868FFF7A2FF034618460837BD4627
:10158C0080BD000080B48BB000AF78603960002360
:10159C007B6200233B6269E101227B6A02FA03F35E
:1015AC00FB613B681B68FA691340BB61BA69FB6954
:1015BC009A4240F058813B685B689A4A93425ED0ED
:1015CC00984A934275D8984A934258D0964A934277
:1015DC006FD8964A934252D0944A934269D8944A0F
:1015EC0093424CD0924A934263D8924A934246D04B
:1015FC00904A93425DD8122B2AD8122B59D801A2AB
:10160C0052F823F08B1600086516000877160008B0
:10161C00B9160008BF160008BF160008BF16000850
:10162C00BF160008BF160008BF160008BF1600083A
:10163C00BF160008BF160008BF160008BF1600082A
:10164C00BF160008BF1600086D16000881160008AA
:10165C00794A934213D02CE03B68DB683B6229E06B
:10166C003B68DB6804333B6224E03B68DB6808338F
:10167C003B621FE03B68DB680C333B621AE03B6863
:10168C009B68002B02D104233B6213E03B689B68F0
:10169C00012B05D108233B627B68FA691A6109E0CA
:1016AC0008233B627B68FA695A6103E000233B62C2
:1016BC0000E000BFBB69FF2B01D87B6801E07B68B1
:1016CC0004337B61BB69FF2B02D87B6A9B0002E071
:1016DC007B6A083B9B003B617B691A680F213B6965
:1016EC0001FA03F3DB431A40396A3B6901FA03F34D
:1016FC001A437B691A603B685B6803F08053002BCC
:10170C0000F0B1804D4B9B694C4A43F0010393614F
:10171C004A4B9B6903F00103BB60BB68484A7B6A78
:10172C009B08023352F82330FB607B6A03F00303FF
:10173C009B000F2202FA03F3DB43FA681340FB60B1
:10174C007B68404A934213D07B683F4A93420DD04A
:10175C007B683E4A934207D07B683D4A934201D155
:10176C00032306E0042304E0022302E0012300E04B
:10177C0000237A6A02F0030292009340FA68134342
:10178C00FB602F497B6A9B080233FA6841F82320DF
:10179C003B685B6803F48013002B06D02D4B9A68D2
:1017AC002C49BB6913438B6006E02A4B9A68BB69D2
:1017BC00DB43284913408B603B685B6803F40013E0
:1017CC00002B06D0234BDA682249BB691343CB604C
:1017DC0006E0204BDA68BB69DB431E491340CB6043
:1017EC003B685B6803F40033002B06D0194B5A6836
:1017FC001849BB6913434B6006E0164B5A68BB692A
:10180C00DB43144913404B603B685B6803F4803343
:10181C00002B21D00F4B1A680E49BB6913430B6088
:10182C0021E000BF00003210000031100000221037
:10183C0000002110000012100000111000100240D6
:10184C000000014000080140000C01400010014064
:10185C0000140140000401400B4B1A68BB69DB43C8
:10186C00094913400B607B6A01337B623B681A6841
:10187C007B6A22FA03F3002B7FF48EAE00BF00BF0D
:10188C002C37BD4680BC70470004014080B483B047
:10189C0000AF78600B467B8013467B707B78002B07
:1018AC0003D07A887B681A6103E07B881A047B6812
:1018BC001A6100BF0C37BD4680BC704780B582B042
:1018CC0000AF0346FB80084B5A69FB881340002B82
:1018DC0006D0054AFB885361FB881846FEF7CCFE00
:1018EC0000BF0837BD4680BD0004014080B586B0FE
:1018FC0000AF78607B68002B01D1012372E27B681A
:10190C001B6803F00103002B00F08780924B5B688F
:10191C0003F00C03042B0CD08F4B5B6803F00C030F
:10192C00082B12D18C4B5B6803F48033B3F5803FEA
:10193C000BD1894B1B6803F40033002B6CD07B68F4
:10194C005B68002B68D101234CE27B685B68B3F5C4
:10195C00803F06D1804B1B687F4A43F48033136071
:10196C002EE07B685B68002B0CD17B4B1B687A4AA2
:10197C0023F480331360784B1B68774A23F480235D
:10198C0013601DE07B685B68B3F5A02F0CD1724B24
:10199C001B68714A43F4802313606F4B1B686E4ABB
:1019AC0043F4803313600BE06B4B1B686A4A23F4DF
:1019BC0080331360684B1B68674A23F480231360E1
:1019CC007B685B68002B13D0FFF760F8386108E088
:1019DC00FFF75CF802463B69D31A642B01D9032349
:1019EC0000E25D4B1B6803F40033002BF0D014E0D5
:1019FC00FFF74CF8386108E0FFF748F802463B69FE
:101A0C00D31A642B01D90323ECE1534B1B6803F469
:101A1C000033002BF0D100E000BF7B681B6803F0A3
:101A2C000203002B63D04C4B5B6803F00C03002BC0
:101A3C000BD0494B5B6803F00C03082B1CD1464BB5
:101A4C005B6803F48033002B16D1434B1B6803F007
:101A5C000203002B05D07B681B69012B01D00123ED
:101A6C00C0E13D4B1B6823F0F8027B685B69DB002F
:101A7C00394913430B603AE07B681B69002B20D07B
:101A8C00364B01221A60FFF701F8386108E0FEF7C7
:101A9C00FDFF02463B69D31A022B01D90323A1E1B6
:101AAC002D4B1B6803F00203002BF0D02A4B1B6854
:101ABC0023F0F8027B685B69DB00274913430B605A
:101ACC0015E0264B00221A60FEF7E0FF386108E0B3
:101ADC00FEF7DCFF02463B69D31A022B01D9032324
:101AEC0080E11D4B1B6803F00203002BF0D17B68D7
:101AFC001B6803F00803002B3AD07B689B69002B12
:101B0C0019D0174B01221A60FEF7C0FF386108E0AC
:101B1C00FEF7BCFF02463B69D31A022B01D9032303
:101B2C0060E10D4B5B6A03F00203002BF0D0012047
:101B3C0000F0CEFA1CE00A4B00221A60FEF7A6FF5A
:101B4C0038610FE0FEF7A2FF02463B69D31A022B65
:101B5C0008D9032346E100BF0010024000004242B6
:101B6C0080044242924B5B6A03F00203002BE9D1E2
:101B7C007B681B6803F00403002B00F0A680002395
:101B8C00FB758B4BDB6903F08053002B0DD1884B1D
:101B9C00DB69874A43F08053D361854BDB6903F0E3
:101BAC008053BB60BB680123FB75824B1B6803F43D
:101BBC008073002B18D17F4B1B687E4A43F48073D3
:101BCC001360FEF763FF386108E0FEF75FFF024623
:101BDC003B69D31A642B01D9032303E1754B1B68B2
:101BEC0003F48073002BF0D07B68DB68012B06D1EB
:101BFC006F4B1B6A6E4A43F0010313622DE07B6846
:101C0C00DB68002B0CD16A4B1B6A694A23F0010379
:101C1C001362674B1B6A664A23F0040313621CE0D1
:101C2C007B68DB68052B0CD1614B1B6A604A43F067
:101C3C00040313625E4B1B6A5D4A43F0010313629B
:101C4C000BE05B4B1B6A5A4A23F001031362584B9F
:101C5C001B6A574A23F0040313627B68DB68002B72
:101C6C0015D0FEF713FF38610AE0FEF70FFF0246AE
:101C7C003B69D31A41F28832934201D90323B1E074
:101C8C004B4B1B6A03F00203002BEED014E0FEF763
:101C9C00FDFE38610AE0FEF7F9FE02463B69D31AF5
:101CAC0041F28832934201D903239BE0404B1B6ADB
:101CBC0003F00203002BEED1FB7D012B05D13C4B35
:101CCC00DB693B4A23F08053D3617B68DB69002BD3
:101CDC0000F08780364B5B6803F00C03082B61D057
:101CEC007B68DB69022B46D1334B00221A60FEF76E
:101CFC00CDFE386108E0FEF7C9FE02463B69D31AF7
:101D0C00022B01D903236DE0294B1B6803F00073F0
:101D1C00002BF0D17B681B6AB3F5803F08D1244BB4
:101D2C005B6823F400327B689B68214913434B604A
:101D3C001F4B5B6823F474127B68196A7B685B6ABF
:101D4C000B431B4913434B601B4B01221A60FEF7DC
:101D5C009DFE386108E0FEF799FE02463B69D31AF6
:101D6C00022B01D903233DE0114B1B6803F00073D8
:101D7C00002BF0D035E0104B00221A60FEF786FEE7
:101D8C00386108E0FEF782FE02463B69D31A022B4B
:101D9C0001D9032326E0064B1B6803F00073002BCC
:101DAC00F0D11EE07B68DB69012B07D1012319E020
:101DBC000010024000700040600042420B4B5B6818
:101DCC00FB60FB6803F480327B681B6A9A4206D185
:101DDC00FB6803F470127B685B6A9A4201D00123A2
:101DEC0000E0002318461837BD4680BD00100240A5
:101DFC0080B584B000AF786039607B68002B01D16E
:101E0C000123D0E06A4B1B6803F007033A689A423F
:101E1C0010D9674B1B6823F0070265493B681343D5
:101E2C000B60634B1B6803F007033A689A4201D0BE
:101E3C000123B8E07B681B6803F00203002B20D061
:101E4C007B681B6803F00403002B05D0594B5B68BF
:101E5C00584A43F4E06353607B681B6803F0080343
:101E6C00002B05D0534B5B68524A43F460535360CC
:101E7C00504B5B6823F0F0027B689B684D49134321
:101E8C004B607B681B6803F00103002B40D07B6820
:101E9C005B68012B07D1474B1B6803F40033002B05
:101EAC0015D101237FE07B685B68022B07D1414B86
:101EBC001B6803F00073002B09D1012373E03D4B29
:101ECC001B6803F00203002B01D101236BE0394B9B
:101EDC005B6823F003027B685B68364913434B60F5
:101EEC00FEF7D4FDF8600AE0FEF7D0FD0246FB6871
:101EFC00D31A41F28832934201D9032353E02D4B7C
:101F0C005B6803F00C027B685B689B009A42EBD128
:101F1C00274B1B6803F007033A689A4210D2244BF4
:101F2C001B6823F0070222493B6813430B60204BCC
:101F3C001B6803F007033A689A4201D0012332E090
:101F4C007B681B6803F00403002B08D0194B5B68FB
:101F5C0023F4E0627B68DB68164913434B607B68B3
:101F6C001B6803F00803002B09D0124B5B6823F4A9
:101F7C0060527B681B69DB000E4913434B6000F019
:101F8C0021F802460B4B5B681B0903F00F030A494F
:101F9C00CB5C22FA03F3094A1360094B1B68184601
:101FAC00FEF732FD002318461037BD4680BD00BF3A
:101FBC000020024000100240A4300008080000205D
:101FCC000C00002080B487B000AF0023FB6000231E
:101FDC00BB6000237B6100237B6000233B611E4BB5
:101FEC005B68FB60FB6803F00C03042B02D0082B2E
:101FFC0003D027E0194B3B6127E0FB689B0C03F0F7
:10200C000F03174AD35C7B60FB6803F48033002B0F
:10201C0010D0114B5B685B0C03F00103114AD35CCD
:10202C00BB607B680D4A03FB02F2BB68B2FBF3F3A7
:10203C007B6104E07B680C4A02FB03F37B617B69E8
:10204C003B6102E0054B3B6100BF3B6918461C3706
:10205C00BD4680BC704700BF0010024000127A00E1
:10206C00BC300008CC30000800093D0080B400AF43
:10207C00024B1B681846BD4680BC70470800002008
:10208C0080B500AFFFF7F2FF0246054B5B681B0AF9
:10209C0003F007030349CB5C22FA03F3184680BD17
:1020AC0000100240B430000880B500AFFFF7DEFF2F
:1020BC000246054B5B68DB0A03F007030349CB5C64
:1020CC0022FA03F3184680BD00100240B430000819
:1020DC0080B485B000AF78600A4B1B680A4AA2FB3B
:1020EC0003235B0A7A6802FB03F3FB6000BFFB6807
:1020FC005A1EFA60002BF9D100BF00BF1437BD4641
:10210C0080BC704708000020D34D621080B586B0AB
:10211C0000AF786000233B610023FB607B681B6889
:10212C0003F00103002B7DD00023FB754F4BDB69C3
:10213C0003F08053002B0DD14C4BDB694B4A43F021
:10214C008053D361494BDB6903F08053BB60BB68A0
:10215C000123FB75464B1B6803F48073002B18D1CD
:10216C00434B1B68424A43F480731360FEF78EFCAA
:10217C00386108E0FEF78AFC02463B69D31A642BEF
:10218C0001D903236DE03A4B1B6803F48073002BD9
:10219C00F0D0364B1B6A03F44073FB60FB68002BDA
:1021AC002ED07B685B6803F44073FA689A4227D0A0
:1021BC002E4B1B6A23F44073FB602E4B01221A60DA
:1021CC002C4B00221A60294AFB681362FB6803F04F
:1021DC000103002B14D0FEF759FC38610AE0FEF71E
:1021EC0055FC02463B69D31A41F28832934201D91D
:1021FC00032336E01D4B1B6A03F00203002BEED0C9
:10220C001A4B1B6A23F440727B685B6817491343B3
:10221C000B62FB7D012B05D1144BDB69134A23F0B8
:10222C008053D3617B681B6803F00203002B08D03A
:10223C000E4B5B6823F440427B689B680B4913434D
:10224C004B607B681B6803F01003002B08D0074B16
:10225C005B6823F480027B68DB68044913434B60A2
:10226C00002318461837BD4680BD00BF0010024041
:10227C00007000404004424280B588B000AF7860E6
:10228C0000237B610023FB6100233B610023FB6087
:10229C000023BB617B68102B0AD07B68102B00F2EB
:1022AC008A807B68012B45D07B68022B75D082E03D
:1022BC00464B5B68FB60454B1B6803F08073002B3F
:1022CC007BD0FB689B0C03F00F03414AD35C3B6152
:1022DC00FB6803F48033002B15D03C4B5B685B0C24
:1022EC0003F001033B4AD35C7B61FB6803F480334E
:1022FC00002B0DD0384A7B69B2FBF3F23B6902FB31
:10230C0003F3FB6104E03B69344A02FB03F3FB611A
:10231C002E4B5B6803F48003B3F5800F02D1FB698D
:10232C00BB614AE0FB695B002D4AA2FB03235B08FF
:10233C00BB6142E0254B1B6AFB60FB6803F44073F6
:10234C00B3F5807F08D1FB6803F00203002B03D0A8
:10235C004FF40043BB611FE0FB6803F44073B3F51B
:10236C00007F09D1194B5B6A03F00203002B03D0E9
:10237C0049F64043BB610FE0FB6803F44073B3F5CF
:10238C00407F1CD1114B1B6803F40033002B16D07B
:10239C004FF22443BB6112E011E0FFF785FE0246C9
:1023AC000A4B5B689B0B03F0030301335B00B2FB2E
:1023BC00F3F3BB6104E000BF02E000BF00E000BF2C
:1023CC00BB6918462037BD4680BD00BF00100240D7
:1023DC00D0300008E030000800127A0000093D00FF
:1023EC00ABAAAAAA80B582B000AF78607B68002B3C
:1023FC0001D1012341E07B6893F83D30DBB2002B27
:10240C0006D17B68002283F83C207868FEF724FA1A
:10241C007B68022283F83D207B681A687B68043352
:10242C001946104600F05CFA7B68012283F84620BE
:10243C007B68012283F83E207B68012283F83F20D1
:10244C007B68012283F840207B68012283F84120BD
:10245C007B68012283F842207B68012283F84320A9
:10246C007B68012283F844207B68012283F8452095
:10247C007B68012283F83D20002318460837BD46AF
:10248C0080BD000080B485B000AF78607B6893F8A5
:10249C003D30DBB2012B01D001233AE07B680222F4
:1024AC0083F83D207B681B68DA687B681B6842F008
:1024BC000102DA607B681B68184A93420ED07B6875
:1024CC001B68B3F1804F09D07B681B68144A934298
:1024DC0004D07B681B68134A934211D17B681B683C
:1024EC009B6803F00703FB60FB68062B10D07B682E
:1024FC001B681A687B681B6842F001021A6007E0CF
:10250C007B681B681A687B681B6842F001021A60C2
:10251C00002318461437BD4680BC7047002C014080
:10252C00000400400008004080B584B000AF786023
:10253C007B681B68DB68FB607B681B681B69BB6086
:10254C00BB6803F00203002B20D0FB6803F00203EE
:10255C00002B1BD07B681B686FF002021A617B6832
:10256C0001221A777B681B689B6903F00303002B1D
:10257C0003D0786800F098F905E0786800F08BF9E2
:10258C00786800F09AF97B6800221A77BB6803F030
:10259C000403002B20D0FB6803F00403002B1BD09A
:1025AC007B681B686FF004021A617B6802221A7741
:1025BC007B681B689B6903F44073002B03D078681D
:1025CC0000F072F905E0786800F065F9786800F0C1
:1025DC0074F97B6800221A77BB6803F00803002BA0
:1025EC0020D0FB6803F00803002B1BD07B681B6812
:1025FC006FF008021A617B6804221A777B681B68EB
:10260C00DB6903F00303002B03D0786800F04CF96E
:10261C0005E0786800F03FF9786800F04EF97B68C7
:10262C0000221A77BB6803F01003002B20D0FB6844
:10263C0003F01003002B1BD07B681B686FF010029B
:10264C001A617B6808221A777B681B68DB6903F4C4
:10265C004073002B03D0786800F026F905E0786809
:10266C0000F019F9786800F028F97B6800221A77D5
:10267C00BB6803F00103002B0CD0FB6803F00103D3
:10268C00002B07D07B681B686FF001021A61786819
:10269C00FEF706F8BB6803F08003002B0CD0FB6838
:1026AC0003F08003002B07D07B681B686FF080025F
:1026BC001A61786800F07FFABB6803F04003002BC6
:1026CC000CD0FB6803F04003002B07D07B681B6821
:1026DC006FF040021A61786800F0F8F8BB6803F0FC
:1026EC002003002B0CD0FB6803F02003002B07D039
:1026FC007B681B686FF020021A61786800F052FA50
:10270C0000BF1037BD4680BD80B584B000AF786087
:10271C0039600023FB737B6893F83C30012B01D1AB
:10272C000223B4E07B68012283F83C207B68022200
:10273C0083F83D207B681B689B68BB60BB6823F0FB
:10274C007703BB60BB6823F47F43BB607B681B686B
:10275C00BA689A603B681B68B3F5005F3ED0B3F56E
:10276C00005F00F28780B3F5805F00F08680B3F5E0
:10277C00805F7FD8702B1AD0702B7BD8602B50D0F9
:10278C00602B77D8502B3CD0502B73D8402B58D083
:10279C00402B6FD8302B64D0302B6BD8202B60D0D3
:1027AC00202B67D8002B5CD0102B5AD062E07B68B2
:1027BC0018683B6899683B685A683B68DB6800F0AE
:1027CC0074F97B681B689B68BB60BB6843F077033C
:1027DC00BB607B681B68BA689A604FE07B681868BE
:1027EC003B6899683B685A683B68DB6800F05DF9A8
:1027FC007B681B689A687B681B6842F480429A600D
:10280C003CE07B6818683B6859683B68DB681A4693
:10281C0000F0D4F87B681B685021184600F02BF9A7
:10282C002CE07B6818683B6859683B68DB681A4683
:10283C0000F0F2F87B681B686021184600F01BF969
:10284C001CE07B6818683B6859683B68DB681A4673
:10285C0000F0B4F87B681B684021184600F00BF9B7
:10286C000CE07B681A683B681B681946104600F040
:10287C0002F903E00123FB7300E000BF7B68012237
:10288C0083F83D207B68002283F83C20FB7B1846B4
:10289C001037BD4680BD80B483B000AF786000BFF8
:1028AC000C37BD4680BC704780B483B000AF7860F5
:1028BC0000BF0C37BD4680BC704780B483B000AFFE
:1028CC00786000BF0C37BD4680BC704780B483B0C5
:1028DC0000AF786000BF0C37BD4680BC704700006D
:1028EC0080B485B000AF786039607B681B68FB6092
:1028FC007B682F4A93420BD07B68B3F1804F07D093
:10290C007B682C4A934203D07B682B4A934208D1B4
:10291C00FB6823F07003FB603B685B68FA68134349
:10292C00FB607B68224A93420BD07B68B3F1804FEB
:10293C0007D07B681F4A934203D07B681E4A9342A0
:10294C0008D1FB6823F44073FB603B68DB68FA68D2
:10295C001343FB60FB6823F080023B685B69134305
:10296C00FB607B68FA681A603B689A687B68DA627D
:10297C003B681A687B689A627B680D4A934203D164
:10298C003B681A697B681A637B6801225A617B6811
:10299C001B6903F00103002B05D07B681B6923F036
:1029AC0001027B681A6100BF1437BD4680BC7047BA
:1029BC00002C0140000400400008004080B487B0A7
:1029CC0000AFF860B9607A60FB681B6A7B61FB68DA
:1029DC001B6A23F00102FB681A62FB689B693B616E
:1029EC003B6923F0F0033B617B681B013A6913439D
:1029FC003B617B6923F00A037B617A69BB681343F3
:102A0C007B61FB683A699A61FB687A691A6200BF5C
:102A1C001C37BD4680BC704780B487B000AFF860EF
:102A2C00B9607A60FB681B6A7B61FB681B6A23F0E8
:102A3C001002FB681A62FB689B693B613B6923F4DB
:102A4C0070433B617B681B033A6913433B617B69B1
:102A5C0023F0A0037B61BB681B017A6913437B6184
:102A6C00FB683A699A61FB687A691A6200BF1C3785
:102A7C00BD4680BC704780B485B000AF78603960CB
:102A8C007B689B68FB60FB6823F07003FB603A6813
:102A9C00FB68134343F00703FB607B68FA689A609A
:102AAC0000BF1437BD4680BC704780B487B000AF00
:102ABC00F860B9607A603B60FB689B687B617B69FE
:102ACC0023F47F437B613B681A027B681A43BB6823
:102ADC0013437A6913437B61FB687A699A6000BF80
:102AEC001C37BD4680BC704780B485B000AF7860A1
:102AFC0039607B6893F83C30012B01D1022346E00E
:102B0C007B68012283F83C207B68022283F83D20FD
:102B1C007B681B685B68FB607B681B689B68BB60A1
:102B2C00FB6823F07003FB603B681B68FA68134377
:102B3C00FB607B681B68FA685A607B681B68164AE6
:102B4C0093420ED07B681B68B3F1804F09D07B6831
:102B5C001B68124A934204D07B681B68104A93424C
:102B6C000CD1BB6823F08003BB603B685B68BA6820
:102B7C001343BB607B681B68BA689A607B68012250
:102B8C0083F83D207B68002283F83C200023184604
:102B9C001437BD4680BC7047002C01400004004037
:102BAC000008004080B483B000AF786000BF0C37E1
:102BBC00BD4680BC704780B483B000AF786000BF66
:102BCC000C37BD4680BC704780B582B000AF7860D2
:102BDC007B68002B01D1012342E07B6893F84130E4
:102BEC00DBB2002B06D17B68002283F8402078688A
:102BFC00FDF782FE7B68242283F841207B681B68EA
:102C0C00DA687B681B6822F40052DA60786800F09E
:102C1C0071F97B681B681A697B681B6822F4904207
:102C2C001A617B681B685A697B681B6822F02A0250
:102C3C005A617B681B68DA687B681B6842F4005237
:102C4C00DA607B6800225A647B68202283F841207A
:102C5C007B68202283F842207B6800225A63002381
:102C6C0018460837BD4680BD80B58AB002AFF86003
:102C7C00B9603B601346FB8000237B61FB6893F8D3
:102C8C004130DBB2202B75D1BB68002B02D0FB8806
:102C9C00002B01D101236EE0FB6800225A64FB6813
:102CAC00212283F84120FDF7F1FE7861FB68FA8858
:102CBC009A84FB68FA88DA84FB689B68B3F5805FBA
:102CCC0008D1FB681B69002B04D10023FB61BB6896
:102CDC00BB6103E0BB68FB610023BB612EE03B687A
:102CEC0000937B6900228021F86800F048F80346C5
:102CFC00002B05D0FB68202283F8412003233AE007
:102D0C00FB69002B0BD1BB691B881A46FB681B683F
:102D1C00C2F308025A60BB690233BB6107E0FB696E
:102D2C001A78FB681B685A60FB690133FB61FB680E
:102D3C00DB8C9BB2013B9AB2FB68DA84FB68DB8CC0
:102D4C009BB2002BCBD13B6800937B6900224021C6
:102D5C00F86800F014F80346002B05D0FB6820221D
:102D6C0083F84120032306E0FB68202283F84120EE
:102D7C00002300E0022318462037BD4680BD80B5F5
:102D8C0086B000AFF860B9603B601346FB713BE066
:102D9C003B6AB3F1FF3F37D0FDF778FE02463B6844
:102DAC00D31A3A6A9A4202D33B6A002B01D103230D
:102DBC003AE0FB681B68DB6803F00403002B23D0AC
:102DCC00BB68802B20D0BB68402B1DD0FB681B68D8
:102DDC001B6803F00803082B16D100237B61FB68EA
:102DEC001B681B687B61FB681B685B687B617B698C
:102DFC00F86800F01DF8FB6808225A64FB68002292
:102E0C0083F8402001230FE0FB681B681A68BB683D
:102E1C001340BA689A420CBF01230023DBB21A4656
:102E2C00FB799A42B4D0002318461837BD4680BDB2
:102E3C0080B495B000AF78607B681B680C337B6303
:102E4C007B6B53E8003F3B633B6B23F49073FB6459
:102E5C007B681B680C33FA6C3A64FB63F96B3A6C55
:102E6C0041E80023BB63BB6B002BE5D17B681B687F
:102E7C0014333B623B6A53E8003FFB61FB6923F070
:102E8C000103BB647B681B681433BA6CFA62BB62C7
:102E9C00B96AFA6A41E800237B627B6A002BE5D1B0
:102EAC007B681B6B012B19D17B681B680C33FB6097
:102EBC00FB6853E8003FBB60BB6823F010037B64E6
:102ECC007B681B680C337A6CBA617B617969BA696F
:102EDC0041E800233B613B69002BE5D17B68202254
:102EEC0083F842207B6800221A6300BF5437BD462A
:102EFC0080BC704780B584B000AF78607B681B687D
:102F0C001B6923F440517B68DA687B681B680A43B1
:102F1C001A617B689A687B681B691A437B685B69DA
:102F2C001343BB607B681B68DB6823F4B05323F04E
:102F3C000C037A681268B9680B43D3607B681B6812
:102F4C005B6923F440717B689A697B681B680A4350
:102F5C005A617B681B682C4A934203D1FFF7A4F893
:102F6C00F86002E0FFF78CF8F860FA6813469B00F3
:102F7C0013449A001A447B685B689B00B2FBF3F322
:102F8C00224AA2FB03235B091901FA6813469B0032
:102F9C0013449A001A447B685B689B00B2FBF3F203
:102FAC001A4BA3FB02035B09642000FB03F3D31A47
:102FBC001B013233154AA2FB03235B0903F0F00318
:102FCC001944FA6813469B0013449A001A447B6810
:102FDC005B689B00B2FBF3F20C4BA3FB02035B0997
:102FEC00642000FB03F3D31A1B013233074AA2FB04
:102FFC0003235B0903F00F027B681B680A449A6089
:10300C0000BF1037BD4680BD003801401F85EB5115
:10301C0070B500260C4D0D4C641BA410A64209D1B2
:10302C0000F022F800260A4D0A4C641BA410A6429C
:10303C0005D170BD55F8043B98470136EEE755F8BD
:10304C00043B98470136F2E7E4300008E43000080E
:10305C00E4300008E830000803460244934200D1F3
:10306C00704703F8011BF9E7F8B500BFF8BC08BCC2
:10307C009E467047F8B500BFF8BC08BC9E4670472A
:10308C006C616D70204F6E210A0000006C616D70D8
:10309C00206F6666210A000000000000000000009E
:1030AC0001020304060708090000000001020304E2
:1030BC0002030405060708090A0B0C0D0E0F10106D
:1030CC000102000002030405060708090A0B0C0D97
:0830DC000E0F101001020000AC
:0430E40031010008AE
:0430E8000D010008CE
:1030EC00D00720030100000000127A00100000003D
:0430FC0001000000CF
:040000050800099D49
:00000001FF
